{
  "contractName": "IndexLottery",
  "abi": [
    {
      "constant": false,
      "inputs": [
        {
          "name": "_spender",
          "type": "address"
        },
        {
          "name": "_value",
          "type": "uint256"
        }
      ],
      "name": "approve",
      "outputs": [
        {
          "name": "",
          "type": "bool"
        }
      ],
      "payable": false,
      "stateMutability": "nonpayable",
      "type": "function"
    },
    {
      "constant": true,
      "inputs": [],
      "name": "totalSupply",
      "outputs": [
        {
          "name": "",
          "type": "uint256"
        }
      ],
      "payable": false,
      "stateMutability": "view",
      "type": "function"
    },
    {
      "constant": false,
      "inputs": [
        {
          "name": "_from",
          "type": "address"
        },
        {
          "name": "_to",
          "type": "address"
        },
        {
          "name": "_value",
          "type": "uint256"
        }
      ],
      "name": "transferFrom",
      "outputs": [
        {
          "name": "",
          "type": "bool"
        }
      ],
      "payable": false,
      "stateMutability": "nonpayable",
      "type": "function"
    },
    {
      "constant": true,
      "inputs": [],
      "name": "UNIT_FEE",
      "outputs": [
        {
          "name": "",
          "type": "uint256"
        }
      ],
      "payable": false,
      "stateMutability": "view",
      "type": "function"
    },
    {
      "constant": true,
      "inputs": [],
      "name": "totalCount",
      "outputs": [
        {
          "name": "",
          "type": "uint256"
        }
      ],
      "payable": false,
      "stateMutability": "view",
      "type": "function"
    },
    {
      "constant": false,
      "inputs": [],
      "name": "unpause",
      "outputs": [],
      "payable": false,
      "stateMutability": "nonpayable",
      "type": "function"
    },
    {
      "constant": false,
      "inputs": [
        {
          "name": "_value",
          "type": "uint256"
        }
      ],
      "name": "burn",
      "outputs": [],
      "payable": false,
      "stateMutability": "nonpayable",
      "type": "function"
    },
    {
      "constant": true,
      "inputs": [],
      "name": "paused",
      "outputs": [
        {
          "name": "",
          "type": "bool"
        }
      ],
      "payable": false,
      "stateMutability": "view",
      "type": "function"
    },
    {
      "constant": false,
      "inputs": [
        {
          "name": "_spender",
          "type": "address"
        },
        {
          "name": "_subtractedValue",
          "type": "uint256"
        }
      ],
      "name": "decreaseApproval",
      "outputs": [
        {
          "name": "success",
          "type": "bool"
        }
      ],
      "payable": false,
      "stateMutability": "nonpayable",
      "type": "function"
    },
    {
      "constant": true,
      "inputs": [
        {
          "name": "_owner",
          "type": "address"
        }
      ],
      "name": "balanceOf",
      "outputs": [
        {
          "name": "",
          "type": "uint256"
        }
      ],
      "payable": false,
      "stateMutability": "view",
      "type": "function"
    },
    {
      "constant": false,
      "inputs": [],
      "name": "renounceOwnership",
      "outputs": [],
      "payable": false,
      "stateMutability": "nonpayable",
      "type": "function"
    },
    {
      "constant": false,
      "inputs": [],
      "name": "destroy",
      "outputs": [],
      "payable": false,
      "stateMutability": "nonpayable",
      "type": "function"
    },
    {
      "constant": false,
      "inputs": [],
      "name": "pause",
      "outputs": [],
      "payable": false,
      "stateMutability": "nonpayable",
      "type": "function"
    },
    {
      "constant": true,
      "inputs": [],
      "name": "forwardAmt",
      "outputs": [
        {
          "name": "",
          "type": "uint256"
        }
      ],
      "payable": false,
      "stateMutability": "view",
      "type": "function"
    },
    {
      "constant": true,
      "inputs": [],
      "name": "owner",
      "outputs": [
        {
          "name": "",
          "type": "address"
        }
      ],
      "payable": false,
      "stateMutability": "view",
      "type": "function"
    },
    {
      "constant": true,
      "inputs": [],
      "name": "UNIT_BASE",
      "outputs": [
        {
          "name": "",
          "type": "uint256"
        }
      ],
      "payable": false,
      "stateMutability": "view",
      "type": "function"
    },
    {
      "constant": false,
      "inputs": [
        {
          "name": "_to",
          "type": "address"
        },
        {
          "name": "_value",
          "type": "uint256"
        }
      ],
      "name": "transfer",
      "outputs": [
        {
          "name": "",
          "type": "bool"
        }
      ],
      "payable": false,
      "stateMutability": "nonpayable",
      "type": "function"
    },
    {
      "constant": true,
      "inputs": [],
      "name": "UNIT_PRICE",
      "outputs": [
        {
          "name": "",
          "type": "uint256"
        }
      ],
      "payable": false,
      "stateMutability": "view",
      "type": "function"
    },
    {
      "constant": false,
      "inputs": [
        {
          "name": "_spender",
          "type": "address"
        },
        {
          "name": "_addedValue",
          "type": "uint256"
        }
      ],
      "name": "increaseApproval",
      "outputs": [
        {
          "name": "success",
          "type": "bool"
        }
      ],
      "payable": false,
      "stateMutability": "nonpayable",
      "type": "function"
    },
    {
      "constant": true,
      "inputs": [],
      "name": "drawNumber",
      "outputs": [
        {
          "name": "",
          "type": "string"
        }
      ],
      "payable": false,
      "stateMutability": "view",
      "type": "function"
    },
    {
      "constant": true,
      "inputs": [
        {
          "name": "_owner",
          "type": "address"
        },
        {
          "name": "_spender",
          "type": "address"
        }
      ],
      "name": "allowance",
      "outputs": [
        {
          "name": "",
          "type": "uint256"
        }
      ],
      "payable": false,
      "stateMutability": "view",
      "type": "function"
    },
    {
      "constant": true,
      "inputs": [],
      "name": "lotteryPayment",
      "outputs": [
        {
          "name": "",
          "type": "address"
        }
      ],
      "payable": false,
      "stateMutability": "view",
      "type": "function"
    },
    {
      "constant": false,
      "inputs": [
        {
          "name": "_newOwner",
          "type": "address"
        }
      ],
      "name": "transferOwnership",
      "outputs": [],
      "payable": false,
      "stateMutability": "nonpayable",
      "type": "function"
    },
    {
      "constant": false,
      "inputs": [
        {
          "name": "_recipient",
          "type": "address"
        }
      ],
      "name": "destroyAndSend",
      "outputs": [],
      "payable": false,
      "stateMutability": "nonpayable",
      "type": "function"
    },
    {
      "inputs": [],
      "payable": false,
      "stateMutability": "nonpayable",
      "type": "constructor"
    },
    {
      "payable": true,
      "stateMutability": "payable",
      "type": "fallback"
    },
    {
      "anonymous": false,
      "inputs": [
        {
          "indexed": false,
          "name": "who",
          "type": "address"
        },
        {
          "indexed": false,
          "name": "amt",
          "type": "uint256"
        }
      ],
      "name": "LogFallback",
      "type": "event"
    },
    {
      "anonymous": false,
      "inputs": [
        {
          "indexed": false,
          "name": "customer",
          "type": "address"
        },
        {
          "indexed": false,
          "name": "amt",
          "type": "uint256"
        },
        {
          "indexed": false,
          "name": "lotData",
          "type": "string"
        },
        {
          "indexed": false,
          "name": "lotCnt",
          "type": "uint256"
        }
      ],
      "name": "LogBuyLottery",
      "type": "event"
    },
    {
      "anonymous": false,
      "inputs": [
        {
          "indexed": false,
          "name": "log",
          "type": "string"
        }
      ],
      "name": "LogStr",
      "type": "event"
    },
    {
      "anonymous": false,
      "inputs": [
        {
          "indexed": false,
          "name": "drawNumber",
          "type": "string"
        },
        {
          "indexed": false,
          "name": "totalAmount",
          "type": "uint256"
        },
        {
          "indexed": false,
          "name": "hitCount",
          "type": "uint256"
        },
        {
          "indexed": false,
          "name": "forwardAmt",
          "type": "uint256"
        }
      ],
      "name": "LogDrawLot",
      "type": "event"
    },
    {
      "anonymous": false,
      "inputs": [],
      "name": "Pause",
      "type": "event"
    },
    {
      "anonymous": false,
      "inputs": [],
      "name": "Unpause",
      "type": "event"
    },
    {
      "anonymous": false,
      "inputs": [
        {
          "indexed": true,
          "name": "previousOwner",
          "type": "address"
        }
      ],
      "name": "OwnershipRenounced",
      "type": "event"
    },
    {
      "anonymous": false,
      "inputs": [
        {
          "indexed": true,
          "name": "previousOwner",
          "type": "address"
        },
        {
          "indexed": true,
          "name": "newOwner",
          "type": "address"
        }
      ],
      "name": "OwnershipTransferred",
      "type": "event"
    },
    {
      "anonymous": false,
      "inputs": [
        {
          "indexed": true,
          "name": "burner",
          "type": "address"
        },
        {
          "indexed": false,
          "name": "value",
          "type": "uint256"
        }
      ],
      "name": "Burn",
      "type": "event"
    },
    {
      "anonymous": false,
      "inputs": [
        {
          "indexed": true,
          "name": "owner",
          "type": "address"
        },
        {
          "indexed": true,
          "name": "spender",
          "type": "address"
        },
        {
          "indexed": false,
          "name": "value",
          "type": "uint256"
        }
      ],
      "name": "Approval",
      "type": "event"
    },
    {
      "anonymous": false,
      "inputs": [
        {
          "indexed": true,
          "name": "from",
          "type": "address"
        },
        {
          "indexed": true,
          "name": "to",
          "type": "address"
        },
        {
          "indexed": false,
          "name": "value",
          "type": "uint256"
        }
      ],
      "name": "Transfer",
      "type": "event"
    },
    {
      "constant": true,
      "inputs": [],
      "name": "getBalance",
      "outputs": [
        {
          "name": "",
          "type": "uint256"
        }
      ],
      "payable": false,
      "stateMutability": "view",
      "type": "function"
    },
    {
      "constant": true,
      "inputs": [],
      "name": "getThisAddress",
      "outputs": [
        {
          "name": "",
          "type": "address"
        }
      ],
      "payable": false,
      "stateMutability": "view",
      "type": "function"
    },
    {
      "constant": false,
      "inputs": [
        {
          "name": "lotData",
          "type": "string"
        },
        {
          "name": "customer",
          "type": "address"
        },
        {
          "name": "lotCnt",
          "type": "uint256"
        }
      ],
      "name": "regist",
      "outputs": [],
      "payable": false,
      "stateMutability": "nonpayable",
      "type": "function"
    },
    {
      "constant": true,
      "inputs": [
        {
          "name": "lotData",
          "type": "string"
        },
        {
          "name": "customer",
          "type": "address"
        }
      ],
      "name": "getLotCnt",
      "outputs": [
        {
          "name": "cnt",
          "type": "uint256"
        }
      ],
      "payable": false,
      "stateMutability": "view",
      "type": "function"
    },
    {
      "constant": false,
      "inputs": [
        {
          "name": "amt",
          "type": "uint256"
        },
        {
          "name": "lotData",
          "type": "string"
        },
        {
          "name": "customer",
          "type": "address"
        }
      ],
      "name": "buyLottery",
      "outputs": [
        {
          "name": "cnt",
          "type": "uint256"
        }
      ],
      "payable": true,
      "stateMutability": "payable",
      "type": "function"
    },
    {
      "constant": true,
      "inputs": [
        {
          "name": "index1",
          "type": "string"
        },
        {
          "name": "index2",
          "type": "string"
        }
      ],
      "name": "calcLotData",
      "outputs": [
        {
          "name": "",
          "type": "string"
        }
      ],
      "payable": false,
      "stateMutability": "pure",
      "type": "function"
    },
    {
      "constant": false,
      "inputs": [
        {
          "name": "index1",
          "type": "string"
        },
        {
          "name": "index2",
          "type": "string"
        }
      ],
      "name": "setDrawNumber",
      "outputs": [],
      "payable": false,
      "stateMutability": "nonpayable",
      "type": "function"
    },
    {
      "constant": false,
      "inputs": [],
      "name": "settleAccount",
      "outputs": [],
      "payable": false,
      "stateMutability": "nonpayable",
      "type": "function"
    }
  ],
  "bytecode": "0x60806040526000600360146101000a81548160ff0219169083151502179055503480156200002c57600080fd5b5033600360006101000a81548173ffffffffffffffffffffffffffffffffffffffff021916908373ffffffffffffffffffffffffffffffffffffffff16021790555062000078620000dc565b604051809103906000f08015801562000095573d6000803e3d6000fd5b50600460006101000a81548173ffffffffffffffffffffffffffffffffffffffff021916908373ffffffffffffffffffffffffffffffffffffffff160217905550620000ed565b6040516122b6806200388d83390190565b61379080620000fd6000396000f300608060405260043610610196576000357c0100000000000000000000000000000000000000000000000000000000900463ffffffff168063095ea7b31461050e57806312065fe01461057357806318160ddd1461059e57806323b872dd146105c957806325e220b11461064e5780632aa7e8c11461077657806334eafb11146107a15780633f4ba83a146107cc57806342966c68146107e357806346bf133e146108105780635c975abb146108aa578063640a47ab146108d957806366188463146108f057806370a0823114610955578063715018a6146109ac57806383197ef0146109c35780638456cb59146109da5780638862feea146109f15780638da5cb5b14610a1c5780639632a46314610a73578063a3bda7ea14610b10578063a59da4a214610ba3578063a9059cbb14610bce578063afa40bbd14610c33578063d395382214610c5e578063d73dd62314610cb5578063d80ffb2014610d1a578063dd62ed3e14610daa578063e790a0eb14610e21578063ec91110f14610e78578063f2fde38b14610f27578063f5074f4114610f6a575b600360009054906101000a900473ffffffffffffffffffffffffffffffffffffffff1673ffffffffffffffffffffffffffffffffffffffff163373ffffffffffffffffffffffffffffffffffffffff1614156102965766071afd498d00003410151515610291576040517f08c379a00000000000000000000000000000000000000000000000000000000081526004018080602001828103825260218152602001807fec849cebb984ec8aa420ec9ca0eca780ebb98420ec9e85eab88820ebb680eca181526020017fb10000000000000000000000000000000000000000000000000000000000000081525060400191505060405180910390fd5b610339565b60046000369050141515610338576040517f08c379a000000000000000000000000000000000000000000000000000000000815260040180806020018281038252602e8152602001807fec9ca0ed9aa8ed959c20ebb3b5eab68cebb288ed98b820ed9895ec8b9dec9db481526020017f20ec9584eb8b99eb8b88eb8ba42e00000000000000000000000000000000000081525060400191505060405180910390fd5b5b600034141515156103b2576040517f08c379a000000000000000000000000000000000000000000000000000000000815260040180806020018281038252601a8152602001807fec9e85eab888ec9d8020ed9584ec8898ec9e85eb8b88eb8ba42e00000000000081525060200191505060405180910390fd5b600066470de4df820000348115156103c657fe5b06141515610462576040517f08c379a00000000000000000000000000000000000000000000000000000000081526004018080602001828103825260278152602001807fec9ca0ed9aa8ed959c20eb8ba8ec9c84eba19c20ec9e85eab888ed95b4eca3bc81526020017fec84b8ec9a942e0000000000000000000000000000000000000000000000000081525060400191505060405180910390fd5b6104a0346000368080601f01602080910402602001604051908101604052809392919081815260200183838082843782019150505050505033610fad565b507fc04e16d4878a87a7d627a5fb8c387ac4a2169e45f86d1935cc739c196c8a57153334604051808373ffffffffffffffffffffffffffffffffffffffff1673ffffffffffffffffffffffffffffffffffffffff1681526020018281526020019250505060405180910390a1005b34801561051a57600080fd5b50610559600480360381019080803573ffffffffffffffffffffffffffffffffffffffff169060200190929190803590602001909291905050506110de565b604051808215151515815260200191505060405180910390f35b34801561057f57600080fd5b5061058861110e565b6040518082815260200191505060405180910390f35b3480156105aa57600080fd5b506105b361112d565b6040518082815260200191505060405180910390f35b3480156105d557600080fd5b50610634600480360381019080803573ffffffffffffffffffffffffffffffffffffffff169060200190929190803573ffffffffffffffffffffffffffffffffffffffff16906020019092919080359060200190929190505050611137565b604051808215151515815260200191505060405180910390f35b34801561065a57600080fd5b506106fb600480360381019080803590602001908201803590602001908080601f0160208091040260200160405190810160405280939291908181526020018383808284378201915050505050509192919290803590602001908201803590602001908080601f0160208091040260200160405190810160405280939291908181526020018383808284378201915050505050509192919290505050611169565b6040518080602001828103825283818151815260200191508051906020019080838360005b8381101561073b578082015181840152602081019050610720565b50505050905090810190601f1680156107685780820380516001836020036101000a031916815260200191505b509250505060405180910390f35b34801561078257600080fd5b5061078b611428565b6040518082815260200191505060405180910390f35b3480156107ad57600080fd5b506107b6611433565b6040518082815260200191505060405180910390f35b3480156107d857600080fd5b506107e1611439565b005b3480156107ef57600080fd5b5061080e600480360381019080803590602001909291905050506114f9565b005b61089460048036038101908080359060200190929190803590602001908201803590602001908080601f0160208091040260200160405190810160405280939291908181526020018383808284378201915050505050509192919290803573ffffffffffffffffffffffffffffffffffffffff169060200190929190505050610fad565b6040518082815260200191505060405180910390f35b3480156108b657600080fd5b506108bf611506565b604051808215151515815260200191505060405180910390f35b3480156108e557600080fd5b506108ee611519565b005b3480156108fc57600080fd5b5061093b600480360381019080803573ffffffffffffffffffffffffffffffffffffffff16906020019092919080359060200190929190505050611c29565b604051808215151515815260200191505060405180910390f35b34801561096157600080fd5b50610996600480360381019080803573ffffffffffffffffffffffffffffffffffffffff169060200190929190505050611c59565b6040518082815260200191505060405180910390f35b3480156109b857600080fd5b506109c1611ca1565b005b3480156109cf57600080fd5b506109d8611da6565b005b3480156109e657600080fd5b506109ef611e3d565b005b3480156109fd57600080fd5b50610a06611efe565b6040518082815260200191505060405180910390f35b348015610a2857600080fd5b50610a31611f04565b604051808273ffffffffffffffffffffffffffffffffffffffff1673ffffffffffffffffffffffffffffffffffffffff16815260200191505060405180910390f35b348015610a7f57600080fd5b50610afa600480360381019080803590602001908201803590602001908080601f0160208091040260200160405190810160405280939291908181526020018383808284378201915050505050509192919290803573ffffffffffffffffffffffffffffffffffffffff169060200190929190505050611f2a565b6040518082815260200191505060405180910390f35b348015610b1c57600080fd5b50610ba1600480360381019080803590602001908201803590602001908080601f0160208091040260200160405190810160405280939291908181526020018383808284378201915050505050509192919290803573ffffffffffffffffffffffffffffffffffffffff16906020019092919080359060200190929190505050611fdd565b005b348015610baf57600080fd5b50610bb8612502565b6040518082815260200191505060405180910390f35b348015610bda57600080fd5b50610c19600480360381019080803573ffffffffffffffffffffffffffffffffffffffff1690602001909291908035906020019092919050505061250d565b604051808215151515815260200191505060405180910390f35b348015610c3f57600080fd5b50610c4861253d565b6040518082815260200191505060405180910390f35b348015610c6a57600080fd5b50610c73612548565b604051808273ffffffffffffffffffffffffffffffffffffffff1673ffffffffffffffffffffffffffffffffffffffff16815260200191505060405180910390f35b348015610cc157600080fd5b50610d00600480360381019080803573ffffffffffffffffffffffffffffffffffffffff16906020019092919080359060200190929190505050612550565b604051808215151515815260200191505060405180910390f35b348015610d2657600080fd5b50610d2f612580565b6040518080602001828103825283818151815260200191508051906020019080838360005b83811015610d6f578082015181840152602081019050610d54565b50505050905090810190601f168015610d9c5780820380516001836020036101000a031916815260200191505b509250505060405180910390f35b348015610db657600080fd5b50610e0b600480360381019080803573ffffffffffffffffffffffffffffffffffffffff169060200190929190803573ffffffffffffffffffffffffffffffffffffffff16906020019092919050505061261e565b6040518082815260200191505060405180910390f35b348015610e2d57600080fd5b50610e366126a5565b604051808273ffffffffffffffffffffffffffffffffffffffff1673ffffffffffffffffffffffffffffffffffffffff16815260200191505060405180910390f35b348015610e8457600080fd5b50610f25600480360381019080803590602001908201803590602001908080601f0160208091040260200160405190810160405280939291908181526020018383808284378201915050505050509192919290803590602001908201803590602001908080601f01602080910402602001604051908101604052809392919081815260200183838082843782019150505050505091929192905050506126cb565b005b348015610f3357600080fd5b50610f68600480360381019080803573ffffffffffffffffffffffffffffffffffffffff169060200190929190505050612758565b005b348015610f7657600080fd5b50610fab600480360381019080803573ffffffffffffffffffffffffffffffffffffffff1690602001909291905050506127c0565b005b600080600360149054906101000a900460ff16151515610fcc57600080fd5b610fe666470de4df8200008661283590919063ffffffff16565b9050610ff3848483611fdd565b7f5049c523d7a55af4d22af8e95a33b2224d16a4b5636fbec9752888e3b7bc028683868684604051808573ffffffffffffffffffffffffffffffffffffffff1673ffffffffffffffffffffffffffffffffffffffff16815260200184815260200180602001838152602001828103825284818151815260200191508051906020019080838360005b8381101561109657808201518184015260208101905061107b565b50505050905090810190601f1680156110c35780820380516001836020036101000a031916815260200191505b509550505050505060405180910390a1809150509392505050565b6000600360149054906101000a900460ff161515156110fc57600080fd5b611106838361284b565b905092915050565b60003073ffffffffffffffffffffffffffffffffffffffff1631905090565b6000600154905090565b6000600360149054906101000a900460ff1615151561115557600080fd5b61116084848461293d565b90509392505050565b60608060608085925084915060046040519080825280601f01601f1916602001820160405280156111a95781602001602082028038833980820191505090505b5090508260028451038151811015156111be57fe5b9060200101517f010000000000000000000000000000000000000000000000000000000000000090047f01000000000000000000000000000000000000000000000000000000000000000281600081518110151561121857fe5b9060200101907effffffffffffffffffffffffffffffffffffffffffffffffffffffffffffff1916908160001a90535082600184510381518110151561125a57fe5b9060200101517f010000000000000000000000000000000000000000000000000000000000000090047f0100000000000000000000000000000000000000000000000000000000000000028160018151811015156112b457fe5b9060200101907effffffffffffffffffffffffffffffffffffffffffffffffffffffffffffff1916908160001a9053508160028351038151811015156112f657fe5b9060200101517f010000000000000000000000000000000000000000000000000000000000000090047f01000000000000000000000000000000000000000000000000000000000000000281600281518110151561135057fe5b9060200101907effffffffffffffffffffffffffffffffffffffffffffffffffffffffffffff1916908160001a90535081600183510381518110151561139257fe5b9060200101517f010000000000000000000000000000000000000000000000000000000000000090047f0100000000000000000000000000000000000000000000000000000000000000028160038151811015156113ec57fe5b9060200101907effffffffffffffffffffffffffffffffffffffffffffffffffffffffffffff1916908160001a90535080935050505092915050565b66071afd498d000081565b60055481565b600360009054906101000a900473ffffffffffffffffffffffffffffffffffffffff1673ffffffffffffffffffffffffffffffffffffffff163373ffffffffffffffffffffffffffffffffffffffff1614151561149557600080fd5b600360149054906101000a900460ff1615156114b057600080fd5b6000600360146101000a81548160ff0219169083151502179055507f7805862f689e2f13df9f062ff482ad3ad112aca9e0847911ed832e158c525b3360405160405180910390a1565b6115033382612cf7565b50565b600360149054906101000a900460ff1681565b60008060008060006060806000806000600360149054906101000a900460ff16151561154457600080fd5b6000600c805460018160011615610100020316600290049050141515156115ae576040517f08c379a0000000000000000000000000000000000000000000000000000000008152600401808060200182810382526000815260200160200191505060405180910390fd5b6115ca663ff2e795f50000600554612eaa90919063ffffffff16565b99506008600c604051808280546001816001161561010002031660029004801561162b5780601f1061160957610100808354040283529182019161162b565b820191906000526020600020905b815481529060010190602001808311611617575b505091505090815260200160405180910390205498506000891115611aff576116788961166a663ff2e795f50000600554612eaa90919063ffffffff16565b61283590919063ffffffff16565b97506116a161169289600554612eaa90919063ffffffff16565b8b612ee290919063ffffffff16565b96506007600c60405180828054600181600116156101000203166002900480156117025780601f106116e0576101008083540402835291820191611702565b820191906000526020600020905b8154815290600101906020018083116116ee575b505091505090815260200160405180910390208054905095508560405190808252806020026020018201604052801561174a5781602001602082028038833980820191505090505b5094508560405190808252806020026020018201604052801561177c5781602001602082028038833980820191505090505b509350600092505b85831015611990576007600c60405180828054600181600116156101000203166002900480156117eb5780601f106117c95761010080835404028352918201916117eb565b820191906000526020600020905b8154815290600101906020018083116117d7575b505091505090815260200160405180910390208381548110151561180b57fe5b9060005260206000200160009054906101000a900473ffffffffffffffffffffffffffffffffffffffff16915081858481518110151561184757fe5b9060200190602002019073ffffffffffffffffffffffffffffffffffffffff16908173ffffffffffffffffffffffffffffffffffffffff1681525050611945886006600c60405180828054600181600116156101000203166002900480156118e65780601f106118c45761010080835404028352918201916118e6565b820191906000526020600020905b8154815290600101906020018083116118d2575b5050915050908152602001604051809103902060008573ffffffffffffffffffffffffffffffffffffffff1673ffffffffffffffffffffffffffffffffffffffff16815260200190815260200160002054612eaa90919063ffffffff16565b90506000831415611966576119638782612efb90919063ffffffff16565b90505b80848481518110151561197557fe5b90602001906020020181815250508280600101935050611784565b600460009054906101000a900473ffffffffffffffffffffffffffffffffffffffff1673ffffffffffffffffffffffffffffffffffffffff1663ecf3979986866040518363ffffffff167c0100000000000000000000000000000000000000000000000000000000028152600401808060200180602001838103835285818151815260200191508051906020019060200280838360005b83811015611a42578082015181840152602081019050611a27565b50505050905001838103825284818151815260200191508051906020019060200280838360005b83811015611a84578082015181840152602081019050611a69565b50505050905001945050505050600060405180830381600087803b158015611aab57600080fd5b505af1158015611abf573d6000803e3d6000fd5b50505050611aef600460009054906101000a900473ffffffffffffffffffffffffffffffffffffffff168b61250d565b1515611afa57600080fd5b611b22565b611b1b663ff2e795f50000600554612eaa90919063ffffffff16565b600b819055505b7f2237a346539f6b838c23b8a37c4d0ff9049b27335aaa4169037e2f6d12635094600c8b8b600b546040518080602001858152602001848152602001838152602001828103825286818154600181600116156101000203166002900481526020019150805460018160011615610100020316600290048015611be55780601f10611bba57610100808354040283529160200191611be5565b820191906000526020600020905b815481529060010190602001808311611bc857829003601f168201915b50509550505050505060405180910390a16020604051908101604052806000815250600c9080519060200190611c1c9291906136bf565b5050505050505050505050565b6000600360149054906101000a900460ff16151515611c4757600080fd5b611c518383612f17565b905092915050565b60008060008373ffffffffffffffffffffffffffffffffffffffff1673ffffffffffffffffffffffffffffffffffffffff168152602001908152602001600020549050919050565b600360009054906101000a900473ffffffffffffffffffffffffffffffffffffffff1673ffffffffffffffffffffffffffffffffffffffff163373ffffffffffffffffffffffffffffffffffffffff16141515611cfd57600080fd5b600360009054906101000a900473ffffffffffffffffffffffffffffffffffffffff1673ffffffffffffffffffffffffffffffffffffffff167ff8df31144d9c2f0f6b59d69b8b98abd5459d07f2742c4df920b25aae33c6482060405160405180910390a26000600360006101000a81548173ffffffffffffffffffffffffffffffffffffffff021916908373ffffffffffffffffffffffffffffffffffffffff160217905550565b600360009054906101000a900473ffffffffffffffffffffffffffffffffffffffff1673ffffffffffffffffffffffffffffffffffffffff163373ffffffffffffffffffffffffffffffffffffffff16141515611e0257600080fd5b600360009054906101000a900473ffffffffffffffffffffffffffffffffffffffff1673ffffffffffffffffffffffffffffffffffffffff16ff5b600360009054906101000a900473ffffffffffffffffffffffffffffffffffffffff1673ffffffffffffffffffffffffffffffffffffffff163373ffffffffffffffffffffffffffffffffffffffff16141515611e9957600080fd5b600360149054906101000a900460ff16151515611eb557600080fd5b6001600360146101000a81548160ff0219169083151502179055507f6985a02210a168e66602d3235cb6db0e70f92b3ba4d376a33c0f3d9434bff62560405160405180910390a1565b600b5481565b600360009054906101000a900473ffffffffffffffffffffffffffffffffffffffff1681565b60006006836040518082805190602001908083835b602083101515611f645780518252602082019150602081019050602083039250611f3f565b6001836020036101000a038019825116818451168082178552505050505050905001915050908152602001604051809103902060008373ffffffffffffffffffffffffffffffffffffffff1673ffffffffffffffffffffffffffffffffffffffff16815260200190815260200160002054905092915050565b600360149054906101000a900460ff16151515611ff957600080fd5b6120b4816006856040518082805190602001908083835b6020831015156120355780518252602082019150602081019050602083039250612010565b6001836020036101000a038019825116818451168082178552505050505050905001915050908152602001604051809103902060008573ffffffffffffffffffffffffffffffffffffffff1673ffffffffffffffffffffffffffffffffffffffff16815260200190815260200160002054612efb90919063ffffffff16565b6006846040518082805190602001908083835b6020831015156120ec57805182526020820191506020810190506020830392506120c7565b6001836020036101000a038019825116818451168082178552505050505050905001915050908152602001604051809103902060008473ffffffffffffffffffffffffffffffffffffffff1673ffffffffffffffffffffffffffffffffffffffff168152602001908152602001600020819055506121de816008856040518082805190602001908083835b60208310151561219c5780518252602082019150602081019050602083039250612177565b6001836020036101000a038019825116818451168082178552505050505050905001915050908152602001604051809103902054612efb90919063ffffffff16565b6008846040518082805190602001908083835b60208310151561221657805182526020820191506020810190506020830392506121f1565b6001836020036101000a03801982511681845116808217855250505050505090500191505090815260200160405180910390208190555061226281600554612efb90919063ffffffff16565b6005819055506000600960008473ffffffffffffffffffffffffffffffffffffffff1673ffffffffffffffffffffffffffffffffffffffff168152602001908152602001600020846040518082805190602001908083835b6020831015156122df57805182526020820191506020810190506020830392506122ba565b6001836020036101000a038019825116818451168082178552505050505050905001915050908152602001604051809103902054141561239657600a60008373ffffffffffffffffffffffffffffffffffffffff1673ffffffffffffffffffffffffffffffffffffffff1681526020019081526020016000208390806001815401808255809150509060018203906000526020600020016000909192909190915090805190602001906123939291906136bf565b50505b61245181600960008573ffffffffffffffffffffffffffffffffffffffff1673ffffffffffffffffffffffffffffffffffffffff168152602001908152602001600020856040518082805190602001908083835b60208310151561240f57805182526020820191506020810190506020830392506123ea565b6001836020036101000a038019825116818451168082178552505050505050905001915050908152602001604051809103902054612efb90919063ffffffff16565b600960008473ffffffffffffffffffffffffffffffffffffffff1673ffffffffffffffffffffffffffffffffffffffff168152602001908152602001600020846040518082805190602001908083835b6020831015156124c657805182526020820191506020810190506020830392506124a1565b6001836020036101000a038019825116818451168082178552505050505050905001915050908152602001604051809103902081905550505050565b663ff2e795f5000081565b6000600360149054906101000a900460ff1615151561252b57600080fd5b61253583836131a8565b905092915050565b66470de4df82000081565b600030905090565b6000600360149054906101000a900460ff1615151561256e57600080fd5b61257883836133c7565b905092915050565b600c8054600181600116156101000203166002900480601f0160208091040260200160405190810160405280929190818152602001828054600181600116156101000203166002900480156126165780601f106125eb57610100808354040283529160200191612616565b820191906000526020600020905b8154815290600101906020018083116125f957829003601f168201915b505050505081565b6000600260008473ffffffffffffffffffffffffffffffffffffffff1673ffffffffffffffffffffffffffffffffffffffff16815260200190815260200160002060008373ffffffffffffffffffffffffffffffffffffffff1673ffffffffffffffffffffffffffffffffffffffff16815260200190815260200160002054905092915050565b600460009054906101000a900473ffffffffffffffffffffffffffffffffffffffff1681565b6000600c805460018160011615610100020316600290049050141515612734576040517f08c379a0000000000000000000000000000000000000000000000000000000008152600401808060200182810382526000815260200160200191505060405180910390fd5b61273e8282611169565b600c90805190602001906127539291906136bf565b505050565b600360009054906101000a900473ffffffffffffffffffffffffffffffffffffffff1673ffffffffffffffffffffffffffffffffffffffff163373ffffffffffffffffffffffffffffffffffffffff161415156127b457600080fd5b6127bd816135c3565b50565b600360009054906101000a900473ffffffffffffffffffffffffffffffffffffffff1673ffffffffffffffffffffffffffffffffffffffff163373ffffffffffffffffffffffffffffffffffffffff1614151561281c57600080fd5b8073ffffffffffffffffffffffffffffffffffffffff16ff5b6000818381151561284257fe5b04905092915050565b600081600260003373ffffffffffffffffffffffffffffffffffffffff1673ffffffffffffffffffffffffffffffffffffffff16815260200190815260200160002060008573ffffffffffffffffffffffffffffffffffffffff1673ffffffffffffffffffffffffffffffffffffffff168152602001908152602001600020819055508273ffffffffffffffffffffffffffffffffffffffff163373ffffffffffffffffffffffffffffffffffffffff167f8c5be1e5ebec7d5bd14f71427d1e84f3dd0314c0f7b2291e5b200ac8c7c3b925846040518082815260200191505060405180910390a36001905092915050565b60008073ffffffffffffffffffffffffffffffffffffffff168373ffffffffffffffffffffffffffffffffffffffff161415151561297a57600080fd5b6000808573ffffffffffffffffffffffffffffffffffffffff1673ffffffffffffffffffffffffffffffffffffffff1681526020019081526020016000205482111515156129c757600080fd5b600260008573ffffffffffffffffffffffffffffffffffffffff1673ffffffffffffffffffffffffffffffffffffffff16815260200190815260200160002060003373ffffffffffffffffffffffffffffffffffffffff1673ffffffffffffffffffffffffffffffffffffffff168152602001908152602001600020548211151515612a5257600080fd5b612aa3826000808773ffffffffffffffffffffffffffffffffffffffff1673ffffffffffffffffffffffffffffffffffffffff16815260200190815260200160002054612ee290919063ffffffff16565b6000808673ffffffffffffffffffffffffffffffffffffffff1673ffffffffffffffffffffffffffffffffffffffff16815260200190815260200160002081905550612b36826000808673ffffffffffffffffffffffffffffffffffffffff1673ffffffffffffffffffffffffffffffffffffffff16815260200190815260200160002054612efb90919063ffffffff16565b6000808573ffffffffffffffffffffffffffffffffffffffff1673ffffffffffffffffffffffffffffffffffffffff16815260200190815260200160002081905550612c0782600260008773ffffffffffffffffffffffffffffffffffffffff1673ffffffffffffffffffffffffffffffffffffffff16815260200190815260200160002060003373ffffffffffffffffffffffffffffffffffffffff1673ffffffffffffffffffffffffffffffffffffffff16815260200190815260200160002054612ee290919063ffffffff16565b600260008673ffffffffffffffffffffffffffffffffffffffff1673ffffffffffffffffffffffffffffffffffffffff16815260200190815260200160002060003373ffffffffffffffffffffffffffffffffffffffff1673ffffffffffffffffffffffffffffffffffffffff168152602001908152602001600020819055508273ffffffffffffffffffffffffffffffffffffffff168473ffffffffffffffffffffffffffffffffffffffff167fddf252ad1be2c89b69c2b068fc378daa952ba7f163c4a11628f55a4df523b3ef846040518082815260200191505060405180910390a3600190509392505050565b6000808373ffffffffffffffffffffffffffffffffffffffff1673ffffffffffffffffffffffffffffffffffffffff168152602001908152602001600020548111151515612d4457600080fd5b612d95816000808573ffffffffffffffffffffffffffffffffffffffff1673ffffffffffffffffffffffffffffffffffffffff16815260200190815260200160002054612ee290919063ffffffff16565b6000808473ffffffffffffffffffffffffffffffffffffffff1673ffffffffffffffffffffffffffffffffffffffff16815260200190815260200160002081905550612dec81600154612ee290919063ffffffff16565b6001819055508173ffffffffffffffffffffffffffffffffffffffff167fcc16f5dbb4873280815c1ee09dbd06736cffcc184412cf7a71a0fdb75d397ca5826040518082815260200191505060405180910390a2600073ffffffffffffffffffffffffffffffffffffffff168273ffffffffffffffffffffffffffffffffffffffff167fddf252ad1be2c89b69c2b068fc378daa952ba7f163c4a11628f55a4df523b3ef836040518082815260200191505060405180910390a35050565b600080831415612ebd5760009050612edc565b8183029050818382811515612ece57fe5b04141515612ed857fe5b8090505b92915050565b6000828211151515612ef057fe5b818303905092915050565b60008183019050828110151515612f0e57fe5b80905092915050565b600080600260003373ffffffffffffffffffffffffffffffffffffffff1673ffffffffffffffffffffffffffffffffffffffff16815260200190815260200160002060008573ffffffffffffffffffffffffffffffffffffffff1673ffffffffffffffffffffffffffffffffffffffff16815260200190815260200160002054905080831115613028576000600260003373ffffffffffffffffffffffffffffffffffffffff1673ffffffffffffffffffffffffffffffffffffffff16815260200190815260200160002060008673ffffffffffffffffffffffffffffffffffffffff1673ffffffffffffffffffffffffffffffffffffffff168152602001908152602001600020819055506130bc565b61303b8382612ee290919063ffffffff16565b600260003373ffffffffffffffffffffffffffffffffffffffff1673ffffffffffffffffffffffffffffffffffffffff16815260200190815260200160002060008673ffffffffffffffffffffffffffffffffffffffff1673ffffffffffffffffffffffffffffffffffffffff168152602001908152602001600020819055505b8373ffffffffffffffffffffffffffffffffffffffff163373ffffffffffffffffffffffffffffffffffffffff167f8c5be1e5ebec7d5bd14f71427d1e84f3dd0314c0f7b2291e5b200ac8c7c3b925600260003373ffffffffffffffffffffffffffffffffffffffff1673ffffffffffffffffffffffffffffffffffffffff16815260200190815260200160002060008873ffffffffffffffffffffffffffffffffffffffff1673ffffffffffffffffffffffffffffffffffffffff168152602001908152602001600020546040518082815260200191505060405180910390a3600191505092915050565b60008073ffffffffffffffffffffffffffffffffffffffff168373ffffffffffffffffffffffffffffffffffffffff16141515156131e557600080fd5b6000803373ffffffffffffffffffffffffffffffffffffffff1673ffffffffffffffffffffffffffffffffffffffff16815260200190815260200160002054821115151561323257600080fd5b613283826000803373ffffffffffffffffffffffffffffffffffffffff1673ffffffffffffffffffffffffffffffffffffffff16815260200190815260200160002054612ee290919063ffffffff16565b6000803373ffffffffffffffffffffffffffffffffffffffff1673ffffffffffffffffffffffffffffffffffffffff16815260200190815260200160002081905550613316826000808673ffffffffffffffffffffffffffffffffffffffff1673ffffffffffffffffffffffffffffffffffffffff16815260200190815260200160002054612efb90919063ffffffff16565b6000808573ffffffffffffffffffffffffffffffffffffffff1673ffffffffffffffffffffffffffffffffffffffff168152602001908152602001600020819055508273ffffffffffffffffffffffffffffffffffffffff163373ffffffffffffffffffffffffffffffffffffffff167fddf252ad1be2c89b69c2b068fc378daa952ba7f163c4a11628f55a4df523b3ef846040518082815260200191505060405180910390a36001905092915050565b600061345882600260003373ffffffffffffffffffffffffffffffffffffffff1673ffffffffffffffffffffffffffffffffffffffff16815260200190815260200160002060008673ffffffffffffffffffffffffffffffffffffffff1673ffffffffffffffffffffffffffffffffffffffff16815260200190815260200160002054612efb90919063ffffffff16565b600260003373ffffffffffffffffffffffffffffffffffffffff1673ffffffffffffffffffffffffffffffffffffffff16815260200190815260200160002060008573ffffffffffffffffffffffffffffffffffffffff1673ffffffffffffffffffffffffffffffffffffffff168152602001908152602001600020819055508273ffffffffffffffffffffffffffffffffffffffff163373ffffffffffffffffffffffffffffffffffffffff167f8c5be1e5ebec7d5bd14f71427d1e84f3dd0314c0f7b2291e5b200ac8c7c3b925600260003373ffffffffffffffffffffffffffffffffffffffff1673ffffffffffffffffffffffffffffffffffffffff16815260200190815260200160002060008773ffffffffffffffffffffffffffffffffffffffff1673ffffffffffffffffffffffffffffffffffffffff168152602001908152602001600020546040518082815260200191505060405180910390a36001905092915050565b600073ffffffffffffffffffffffffffffffffffffffff168173ffffffffffffffffffffffffffffffffffffffff16141515156135ff57600080fd5b8073ffffffffffffffffffffffffffffffffffffffff16600360009054906101000a900473ffffffffffffffffffffffffffffffffffffffff1673ffffffffffffffffffffffffffffffffffffffff167f8be0079c531659141344cd1fd0a4f28419497f9722a3daafe3b4186f6b6457e060405160405180910390a380600360006101000a81548173ffffffffffffffffffffffffffffffffffffffff021916908373ffffffffffffffffffffffffffffffffffffffff16021790555050565b828054600181600116156101000203166002900490600052602060002090601f016020900481019282601f1061370057805160ff191683800117855561372e565b8280016001018555821561372e579182015b8281111561372d578251825591602001919060010190613712565b5b50905061373b919061373f565b5090565b61376191905b8082111561375d576000816000905550600101613745565b5090565b905600a165627a7a72305820bb981e2875e123873dd50b9b1d61c85d7953ee3e5fdbfecf4216f74d95b9ab1e002960806040526000600360146101000a81548160ff0219169083151502179055506000600360156101000a81548160ff02191690831515021790555034801561004657600080fd5b5033600360006101000a81548173ffffffffffffffffffffffffffffffffffffffff021916908373ffffffffffffffffffffffffffffffffffffffff16021790555033600460006101000a81548173ffffffffffffffffffffffffffffffffffffffff021916908373ffffffffffffffffffffffffffffffffffffffff1602179055506121de806100d86000396000f30060806040526004361061011d576000357c0100000000000000000000000000000000000000000000000000000000900463ffffffff16806305d2035b14610122578063095ea7b314610151578063136875a1146101b657806318160ddd146101cd57806323b872dd146101f857806336273cda1461027d5780633f4ba83a146102d457806340c10f19146102eb57806342966c68146103505780635c975abb1461037d57806366188463146103ac57806370a0823114610411578063715018a6146104685780637d64bcb41461047f5780638456cb59146104ae5780638da5cb5b146104c5578063a9059cbb1461051c578063d73dd62314610581578063dd62ed3e146105e6578063ecf397991461065d578063f2fde38b146106b0575b600080fd5b34801561012e57600080fd5b506101376106f3565b604051808215151515815260200191505060405180910390f35b34801561015d57600080fd5b5061019c600480360381019080803573ffffffffffffffffffffffffffffffffffffffff16906020019092919080359060200190929190505050610706565b604051808215151515815260200191505060405180910390f35b3480156101c257600080fd5b506101cb610736565b005b3480156101d957600080fd5b506101e2610935565b6040518082815260200191505060405180910390f35b34801561020457600080fd5b50610263600480360381019080803573ffffffffffffffffffffffffffffffffffffffff169060200190929190803573ffffffffffffffffffffffffffffffffffffffff1690602001909291908035906020019092919050505061093f565b604051808215151515815260200191505060405180910390f35b34801561028957600080fd5b506102be600480360381019080803573ffffffffffffffffffffffffffffffffffffffff169060200190929190505050610971565b6040518082815260200191505060405180910390f35b3480156102e057600080fd5b506102e96109ba565b005b3480156102f757600080fd5b50610336600480360381019080803573ffffffffffffffffffffffffffffffffffffffff16906020019092919080359060200190929190505050610a7a565b604051808215151515815260200191505060405180910390f35b34801561035c57600080fd5b5061037b60048036038101908080359060200190929190505050610c60565b005b34801561038957600080fd5b50610392610c6d565b604051808215151515815260200191505060405180910390f35b3480156103b857600080fd5b506103f7600480360381019080803573ffffffffffffffffffffffffffffffffffffffff16906020019092919080359060200190929190505050610c80565b604051808215151515815260200191505060405180910390f35b34801561041d57600080fd5b50610452600480360381019080803573ffffffffffffffffffffffffffffffffffffffff169060200190929190505050610cb0565b6040518082815260200191505060405180910390f35b34801561047457600080fd5b5061047d610cf8565b005b34801561048b57600080fd5b50610494610dfd565b604051808215151515815260200191505060405180910390f35b3480156104ba57600080fd5b506104c3610ec5565b005b3480156104d157600080fd5b506104da610f86565b604051808273ffffffffffffffffffffffffffffffffffffffff1673ffffffffffffffffffffffffffffffffffffffff16815260200191505060405180910390f35b34801561052857600080fd5b50610567600480360381019080803573ffffffffffffffffffffffffffffffffffffffff16906020019092919080359060200190929190505050610fac565b604051808215151515815260200191505060405180910390f35b34801561058d57600080fd5b506105cc600480360381019080803573ffffffffffffffffffffffffffffffffffffffff16906020019092919080359060200190929190505050610fdc565b604051808215151515815260200191505060405180910390f35b3480156105f257600080fd5b50610647600480360381019080803573ffffffffffffffffffffffffffffffffffffffff169060200190929190803573ffffffffffffffffffffffffffffffffffffffff16906020019092919050505061100c565b6040518082815260200191505060405180910390f35b34801561066957600080fd5b506106ae600480360381019080803590602001908201803590602001919091929391929390803590602001908201803590602001919091929391929390505050611093565b005b3480156106bc57600080fd5b506106f1600480360381019080803573ffffffffffffffffffffffffffffffffffffffff16906020019092919050505061130e565b005b600360149054906101000a900460ff1681565b6000600360159054906101000a900460ff1615151561072457600080fd5b61072e8383611376565b905092915050565b6000806000600560003373ffffffffffffffffffffffffffffffffffffffff1673ffffffffffffffffffffffffffffffffffffffff168152602001908152602001600020541415156107f0576040517f08c379a000000000000000000000000000000000000000000000000000000000815260040180806020018281038252601e8152602001807feca780eab88920eb8c80ec8381ec9db420ec9584eb8b99eb8b88eb8ba42e000081525060200191505060405180910390fd5b339150600560008373ffffffffffffffffffffffffffffffffffffffff1673ffffffffffffffffffffffffffffffffffffffff16815260200190815260200160002054905061083f8282610fac565b151561084a57600080fd5b600560008373ffffffffffffffffffffffffffffffffffffffff1673ffffffffffffffffffffffffffffffffffffffff168152602001908152602001600020600090557f97ce2f39571fdd07a87cf0164ca50a35a8d4d6a232480fd147ada0eab913d0a1828260405180806020018473ffffffffffffffffffffffffffffffffffffffff1673ffffffffffffffffffffffffffffffffffffffff1681526020018381526020018281038252601c8152602001807feca780eab88920ec9a94ecb2ad20ecb298eba6ac20ec9984eba38c2e00000000815250602001935050505060405180910390a15050565b6000600154905090565b6000600360159054906101000a900460ff1615151561095d57600080fd5b610968848484611468565b90509392505050565b6000600560008373ffffffffffffffffffffffffffffffffffffffff1673ffffffffffffffffffffffffffffffffffffffff168152602001908152602001600020549050919050565b600360009054906101000a900473ffffffffffffffffffffffffffffffffffffffff1673ffffffffffffffffffffffffffffffffffffffff163373ffffffffffffffffffffffffffffffffffffffff16141515610a1657600080fd5b600360159054906101000a900460ff161515610a3157600080fd5b6000600360156101000a81548160ff0219169083151502179055507f7805862f689e2f13df9f062ff482ad3ad112aca9e0847911ed832e158c525b3360405160405180910390a1565b6000600360009054906101000a900473ffffffffffffffffffffffffffffffffffffffff1673ffffffffffffffffffffffffffffffffffffffff163373ffffffffffffffffffffffffffffffffffffffff16141515610ad857600080fd5b600360149054906101000a900460ff16151515610af457600080fd5b610b098260015461182290919063ffffffff16565b600181905550610b60826000808673ffffffffffffffffffffffffffffffffffffffff1673ffffffffffffffffffffffffffffffffffffffff1681526020019081526020016000205461182290919063ffffffff16565b6000808573ffffffffffffffffffffffffffffffffffffffff1673ffffffffffffffffffffffffffffffffffffffff168152602001908152602001600020819055508273ffffffffffffffffffffffffffffffffffffffff167f0f6798a560793a54c3bcfe86a93cde1e73087d944c0ea20544137d4121396885836040518082815260200191505060405180910390a28273ffffffffffffffffffffffffffffffffffffffff16600073ffffffffffffffffffffffffffffffffffffffff167fddf252ad1be2c89b69c2b068fc378daa952ba7f163c4a11628f55a4df523b3ef846040518082815260200191505060405180910390a36001905092915050565b610c6a338261183e565b50565b600360159054906101000a900460ff1681565b6000600360159054906101000a900460ff16151515610c9e57600080fd5b610ca883836119f1565b905092915050565b60008060008373ffffffffffffffffffffffffffffffffffffffff1673ffffffffffffffffffffffffffffffffffffffff168152602001908152602001600020549050919050565b600360009054906101000a900473ffffffffffffffffffffffffffffffffffffffff1673ffffffffffffffffffffffffffffffffffffffff163373ffffffffffffffffffffffffffffffffffffffff16141515610d5457600080fd5b600360009054906101000a900473ffffffffffffffffffffffffffffffffffffffff1673ffffffffffffffffffffffffffffffffffffffff167ff8df31144d9c2f0f6b59d69b8b98abd5459d07f2742c4df920b25aae33c6482060405160405180910390a26000600360006101000a81548173ffffffffffffffffffffffffffffffffffffffff021916908373ffffffffffffffffffffffffffffffffffffffff160217905550565b6000600360009054906101000a900473ffffffffffffffffffffffffffffffffffffffff1673ffffffffffffffffffffffffffffffffffffffff163373ffffffffffffffffffffffffffffffffffffffff16141515610e5b57600080fd5b600360149054906101000a900460ff16151515610e7757600080fd5b6001600360146101000a81548160ff0219169083151502179055507fae5184fba832cb2b1f702aca6117b8d265eaf03ad33eb133f19dde0f5920fa0860405160405180910390a16001905090565b600360009054906101000a900473ffffffffffffffffffffffffffffffffffffffff1673ffffffffffffffffffffffffffffffffffffffff163373ffffffffffffffffffffffffffffffffffffffff16141515610f2157600080fd5b600360159054906101000a900460ff16151515610f3d57600080fd5b6001600360156101000a81548160ff0219169083151502179055507f6985a02210a168e66602d3235cb6db0e70f92b3ba4d376a33c0f3d9434bff62560405160405180910390a1565b600360009054906101000a900473ffffffffffffffffffffffffffffffffffffffff1681565b6000600360159054906101000a900460ff16151515610fca57600080fd5b610fd48383611c82565b905092915050565b6000600360159054906101000a900460ff16151515610ffa57600080fd5b6110048383611ea1565b905092915050565b6000600260008473ffffffffffffffffffffffffffffffffffffffff1673ffffffffffffffffffffffffffffffffffffffff16815260200190815260200160002060008373ffffffffffffffffffffffffffffffffffffffff1673ffffffffffffffffffffffffffffffffffffffff16815260200190815260200160002054905092915050565b60008060003373ffffffffffffffffffffffffffffffffffffffff16600460009054906101000a900473ffffffffffffffffffffffffffffffffffffffff1673ffffffffffffffffffffffffffffffffffffffff1614151561115d576040517f08c379a000000000000000000000000000000000000000000000000000000000815260040180806020018281038252601e8152602001807feca780eab88920eb8c80ec8381ec9db420ec9584eb8b99eb8b88eb8ba42e000081525060200191505060405180910390fd5b600092505b8686905083101561125357868684818110151561117b57fe5b9050602002013573ffffffffffffffffffffffffffffffffffffffff16915084848481811015156111a857fe5b90506020020135905061120381600560008573ffffffffffffffffffffffffffffffffffffffff1673ffffffffffffffffffffffffffffffffffffffff1681526020019081526020016000205461182290919063ffffffff16565b600560008473ffffffffffffffffffffffffffffffffffffffff1673ffffffffffffffffffffffffffffffffffffffff168152602001908152602001600020819055508280600101935050611162565b7f6971c9b61284afefc1ce5786bd3c46bd2c41b1a61fa28f9be3c56baacffe17df87878787604051808060200180602001806020018481038452601b8152602001807feca780eab88920ec9ea5ebb68020eab8b0eba19d20ec9984eba38c0000000000815250602001848103835288888281815260200192506020028082843782019150508481038252868682818152602001925060200280828437820191505097505050505050505060405180910390a150505050505050565b600360009054906101000a900473ffffffffffffffffffffffffffffffffffffffff1673ffffffffffffffffffffffffffffffffffffffff163373ffffffffffffffffffffffffffffffffffffffff1614151561136a57600080fd5b6113738161209d565b50565b600081600260003373ffffffffffffffffffffffffffffffffffffffff1673ffffffffffffffffffffffffffffffffffffffff16815260200190815260200160002060008573ffffffffffffffffffffffffffffffffffffffff1673ffffffffffffffffffffffffffffffffffffffff168152602001908152602001600020819055508273ffffffffffffffffffffffffffffffffffffffff163373ffffffffffffffffffffffffffffffffffffffff167f8c5be1e5ebec7d5bd14f71427d1e84f3dd0314c0f7b2291e5b200ac8c7c3b925846040518082815260200191505060405180910390a36001905092915050565b60008073ffffffffffffffffffffffffffffffffffffffff168373ffffffffffffffffffffffffffffffffffffffff16141515156114a557600080fd5b6000808573ffffffffffffffffffffffffffffffffffffffff1673ffffffffffffffffffffffffffffffffffffffff1681526020019081526020016000205482111515156114f257600080fd5b600260008573ffffffffffffffffffffffffffffffffffffffff1673ffffffffffffffffffffffffffffffffffffffff16815260200190815260200160002060003373ffffffffffffffffffffffffffffffffffffffff1673ffffffffffffffffffffffffffffffffffffffff16815260200190815260200160002054821115151561157d57600080fd5b6115ce826000808773ffffffffffffffffffffffffffffffffffffffff1673ffffffffffffffffffffffffffffffffffffffff1681526020019081526020016000205461219990919063ffffffff16565b6000808673ffffffffffffffffffffffffffffffffffffffff1673ffffffffffffffffffffffffffffffffffffffff16815260200190815260200160002081905550611661826000808673ffffffffffffffffffffffffffffffffffffffff1673ffffffffffffffffffffffffffffffffffffffff1681526020019081526020016000205461182290919063ffffffff16565b6000808573ffffffffffffffffffffffffffffffffffffffff1673ffffffffffffffffffffffffffffffffffffffff1681526020019081526020016000208190555061173282600260008773ffffffffffffffffffffffffffffffffffffffff1673ffffffffffffffffffffffffffffffffffffffff16815260200190815260200160002060003373ffffffffffffffffffffffffffffffffffffffff1673ffffffffffffffffffffffffffffffffffffffff1681526020019081526020016000205461219990919063ffffffff16565b600260008673ffffffffffffffffffffffffffffffffffffffff1673ffffffffffffffffffffffffffffffffffffffff16815260200190815260200160002060003373ffffffffffffffffffffffffffffffffffffffff1673ffffffffffffffffffffffffffffffffffffffff168152602001908152602001600020819055508273ffffffffffffffffffffffffffffffffffffffff168473ffffffffffffffffffffffffffffffffffffffff167fddf252ad1be2c89b69c2b068fc378daa952ba7f163c4a11628f55a4df523b3ef846040518082815260200191505060405180910390a3600190509392505050565b6000818301905082811015151561183557fe5b80905092915050565b6000808373ffffffffffffffffffffffffffffffffffffffff1673ffffffffffffffffffffffffffffffffffffffff16815260200190815260200160002054811115151561188b57600080fd5b6118dc816000808573ffffffffffffffffffffffffffffffffffffffff1673ffffffffffffffffffffffffffffffffffffffff1681526020019081526020016000205461219990919063ffffffff16565b6000808473ffffffffffffffffffffffffffffffffffffffff1673ffffffffffffffffffffffffffffffffffffffff168152602001908152602001600020819055506119338160015461219990919063ffffffff16565b6001819055508173ffffffffffffffffffffffffffffffffffffffff167fcc16f5dbb4873280815c1ee09dbd06736cffcc184412cf7a71a0fdb75d397ca5826040518082815260200191505060405180910390a2600073ffffffffffffffffffffffffffffffffffffffff168273ffffffffffffffffffffffffffffffffffffffff167fddf252ad1be2c89b69c2b068fc378daa952ba7f163c4a11628f55a4df523b3ef836040518082815260200191505060405180910390a35050565b600080600260003373ffffffffffffffffffffffffffffffffffffffff1673ffffffffffffffffffffffffffffffffffffffff16815260200190815260200160002060008573ffffffffffffffffffffffffffffffffffffffff1673ffffffffffffffffffffffffffffffffffffffff16815260200190815260200160002054905080831115611b02576000600260003373ffffffffffffffffffffffffffffffffffffffff1673ffffffffffffffffffffffffffffffffffffffff16815260200190815260200160002060008673ffffffffffffffffffffffffffffffffffffffff1673ffffffffffffffffffffffffffffffffffffffff16815260200190815260200160002081905550611b96565b611b15838261219990919063ffffffff16565b600260003373ffffffffffffffffffffffffffffffffffffffff1673ffffffffffffffffffffffffffffffffffffffff16815260200190815260200160002060008673ffffffffffffffffffffffffffffffffffffffff1673ffffffffffffffffffffffffffffffffffffffff168152602001908152602001600020819055505b8373ffffffffffffffffffffffffffffffffffffffff163373ffffffffffffffffffffffffffffffffffffffff167f8c5be1e5ebec7d5bd14f71427d1e84f3dd0314c0f7b2291e5b200ac8c7c3b925600260003373ffffffffffffffffffffffffffffffffffffffff1673ffffffffffffffffffffffffffffffffffffffff16815260200190815260200160002060008873ffffffffffffffffffffffffffffffffffffffff1673ffffffffffffffffffffffffffffffffffffffff168152602001908152602001600020546040518082815260200191505060405180910390a3600191505092915050565b60008073ffffffffffffffffffffffffffffffffffffffff168373ffffffffffffffffffffffffffffffffffffffff1614151515611cbf57600080fd5b6000803373ffffffffffffffffffffffffffffffffffffffff1673ffffffffffffffffffffffffffffffffffffffff168152602001908152602001600020548211151515611d0c57600080fd5b611d5d826000803373ffffffffffffffffffffffffffffffffffffffff1673ffffffffffffffffffffffffffffffffffffffff1681526020019081526020016000205461219990919063ffffffff16565b6000803373ffffffffffffffffffffffffffffffffffffffff1673ffffffffffffffffffffffffffffffffffffffff16815260200190815260200160002081905550611df0826000808673ffffffffffffffffffffffffffffffffffffffff1673ffffffffffffffffffffffffffffffffffffffff1681526020019081526020016000205461182290919063ffffffff16565b6000808573ffffffffffffffffffffffffffffffffffffffff1673ffffffffffffffffffffffffffffffffffffffff168152602001908152602001600020819055508273ffffffffffffffffffffffffffffffffffffffff163373ffffffffffffffffffffffffffffffffffffffff167fddf252ad1be2c89b69c2b068fc378daa952ba7f163c4a11628f55a4df523b3ef846040518082815260200191505060405180910390a36001905092915050565b6000611f3282600260003373ffffffffffffffffffffffffffffffffffffffff1673ffffffffffffffffffffffffffffffffffffffff16815260200190815260200160002060008673ffffffffffffffffffffffffffffffffffffffff1673ffffffffffffffffffffffffffffffffffffffff1681526020019081526020016000205461182290919063ffffffff16565b600260003373ffffffffffffffffffffffffffffffffffffffff1673ffffffffffffffffffffffffffffffffffffffff16815260200190815260200160002060008573ffffffffffffffffffffffffffffffffffffffff1673ffffffffffffffffffffffffffffffffffffffff168152602001908152602001600020819055508273ffffffffffffffffffffffffffffffffffffffff163373ffffffffffffffffffffffffffffffffffffffff167f8c5be1e5ebec7d5bd14f71427d1e84f3dd0314c0f7b2291e5b200ac8c7c3b925600260003373ffffffffffffffffffffffffffffffffffffffff1673ffffffffffffffffffffffffffffffffffffffff16815260200190815260200160002060008773ffffffffffffffffffffffffffffffffffffffff1673ffffffffffffffffffffffffffffffffffffffff168152602001908152602001600020546040518082815260200191505060405180910390a36001905092915050565b600073ffffffffffffffffffffffffffffffffffffffff168173ffffffffffffffffffffffffffffffffffffffff16141515156120d957600080fd5b8073ffffffffffffffffffffffffffffffffffffffff16600360009054906101000a900473ffffffffffffffffffffffffffffffffffffffff1673ffffffffffffffffffffffffffffffffffffffff167f8be0079c531659141344cd1fd0a4f28419497f9722a3daafe3b4186f6b6457e060405160405180910390a380600360006101000a81548173ffffffffffffffffffffffffffffffffffffffff021916908373ffffffffffffffffffffffffffffffffffffffff16021790555050565b60008282111515156121a757fe5b8183039050929150505600a165627a7a72305820c652f1851a6366ae87253a87164132376d0758d45d77f4e579fcfdf1f22a39280029",
  "source": "pragma solidity ^0.4.24;\r\n\r\nimport \"openzeppelin-solidity/contracts/token/ERC20/BurnableToken.sol\";\r\nimport \"openzeppelin-solidity/contracts/token/ERC20/MintableToken.sol\";\r\nimport \"openzeppelin-solidity/contracts/token/ERC20/PausableToken.sol\";\r\nimport \"openzeppelin-solidity/contracts/lifecycle/Destructible.sol\";\r\n\r\n/**\r\n * @title IndexLottery\r\n * @dev ERC20  , Burnable, Pausable, Destructible   \r\n *\r\n */\r\ncontract IndexLottery is BurnableToken, PausableToken, Destructible {\r\n\r\n  using SafeMath for uint256;\r\n\r\n  /**\r\n\t * @dev  \r\n\t */\r\n  LotteryPayment public lotteryPayment;\r\n\r\n  /**\r\n\t * @dev  :   \r\n\t */\r\n  constructor() public {\r\n\r\n    //    :         \r\n    lotteryPayment = new LotteryPayment();\r\n\r\n  }\r\n\r\n  function getBalance() public view returns(uint256) {\r\n      return  address(this).balance;\r\n  }\r\n  function getThisAddress() public view returns(address) {\r\n      return  address(this);\r\n  }\r\n  \r\n\t\r\n/*\r\n===============================================================================================\r\n   \r\n===============================================================================================\r\n*/\r\n\r\n  //  \r\n  uint256 public totalCount;\r\n\r\n  //   :  => (  => )\r\n  mapping(string=>mapping(address=>uint256)) private lotMap;\r\n  mapping(string=>address[])                 private lotKey; //  \r\n//  mapping(string=>mapping(uint256=>address)) public lotKey;\r\n  mapping(string=>uint256)                   private lotTot; //  \r\n\r\n  //   :   => ( => )\r\n  mapping(address=>mapping(string=>uint256)) private custMap;\r\n  mapping(address=>string[])                 private custKey; //  \r\n  \r\n  /**\r\n    * @dev    \r\n    * @param lotData  \r\n    * @param customer   \r\n    * @param lotCnt   \r\n    */\r\n  function regist(string lotData, address customer, uint256 lotCnt) public whenNotPaused {\r\n\r\n      // 1.   \r\n\r\n      // 1.1   \r\n      /*\r\n      if (lotMap[lotData][customer] == 0) {\r\n        //lotKey[lotData].push(customer);\r\n        uint256 idx = lotKey[lotData].length - 1;\r\n        idx = idx < 0 ? 0 : idx;\r\n        lotKey[lotData][idx] = customer;\r\n      }\r\n      */\r\n      // 1.2   \r\n      lotMap[lotData][customer] = lotMap[lotData][customer].add(lotCnt);\r\n\r\n      // 1.3    \r\n      lotTot[lotData] = lotTot[lotData].add(lotCnt);\r\n\r\n      // 2.   \r\n      totalCount = totalCount.add(lotCnt);\r\n\r\n      // 3.   \r\n      // 3.1   \r\n      if (custMap[customer][lotData] == 0) {\r\n        custKey[customer].push(lotData);\r\n      }\r\n      // 3.2   \r\n      custMap[customer][lotData] = custMap[customer][lotData].add(lotCnt);\r\n\r\n    }\r\n\r\n\tfunction getLotCnt(string lotData, address customer) public view returns(uint256 cnt) {\r\n\t\treturn lotMap[lotData][customer];\r\n\t}\r\n    /**\r\n      * @dev      .\r\n      * @param lotData  \r\n      * @return  \r\n      */\r\n  //  function getCustomers(string lotData) public view returns(address[]) {\r\n  //    return lotKey[lotData];\r\n  //  }\r\n\r\n    /**\r\n      * @dev     .\r\n      * @param customer   \r\n      * @return  \r\n      */\r\n  //  function getLotNumbers(address customer, uint256 idx) public view returns(string) {\r\n  //    return custKey[customer][idx];\r\n  //  }\r\n\r\n/*\r\n===============================================================================================\r\n \r\n===============================================================================================\r\n*/\r\n\r\n  //   () : 0.02\tEther .    .\r\n  uint256 constant public UNIT_PRICE = 20000000000000000;\r\n  //  \r\n  // TOOD GasPrice       => web3.estimateGas (UI)\r\n  uint256 constant public UNIT_FEE  =  2000000000000000;\r\n  //  \r\n  uint256 constant public UNIT_BASE = 18000000000000000;\r\n  event LogFallback(address who, uint256 amt);\r\n  \r\n  /*\r\n   * @dev Fallback \r\n   */\r\n  function() public payable isValidPay() {\r\n\r\n    buyLottery(msg.value, string(msg.data), msg.sender);\r\n        \r\n    emit LogFallback(msg.sender, msg.value);\r\n\r\n  }\r\n\r\n  event LogBuyLottery(address customer, uint256 amt, string lotData, uint256 lotCnt);\r\n  event LogStr(string log);\r\n  \r\n  /*\r\n   * @dev  \r\n   */\r\n  function buyLottery(uint256 amt, string lotData, address customer) public payable whenNotPaused returns(uint256 cnt) {\r\n\r\n    //    \r\n    uint256 lotCnt = amt.div(UNIT_PRICE);\r\n\r\n    //   \r\n    regist(lotData, customer, lotCnt);\r\n\t\r\n\t\r\n    emit LogBuyLottery(customer, amt, lotData, lotCnt);\r\n\t\r\n\treturn lotCnt;\r\n\r\n  }\r\n\r\n  /**\r\n   * @dev   ,  \r\n   */\r\n  modifier isValidPay() {\r\n\r\n    //  \r\n    if (msg.sender == owner) {\r\n        //    \r\n        require(msg.value >= UNIT_FEE, \"   \");\r\n    //  \r\n    } else {\r\n        require(msg.data.length == 4, \"   .\");\r\n    }\r\n      \r\n    require(msg.value != 0, \" .\");\r\n    \r\n    require(msg.value % UNIT_PRICE == 0, \"  .\");\r\n    \r\n  \t_;\r\n  }\r\n\r\n/*\r\n===============================================================================================\r\n  \r\n===============================================================================================\r\n*/\r\n\r\n  //  \r\n  uint256 public forwardAmt;\r\n\r\n  /**\r\n   * @dev   \r\n   * @param index1 KOSPI \r\n   * @param index2 KOSDAQ \r\n   * @return \r\n   */\r\n  function calcLotData(string index1, string index2) public pure returns(string) {\r\n    bytes memory strBytes1 = bytes(index1);\r\n    bytes memory strBytes2 = bytes(index2);\r\n    bytes memory result = new bytes(4);\r\n    result[0] = strBytes1[strBytes1.length - 2];\r\n    result[1] = strBytes1[strBytes1.length - 1];\r\n    result[2] = strBytes2[strBytes2.length - 2];\r\n    result[3] = strBytes2[strBytes2.length - 1];\r\n    return string(result);\r\n  }\r\n  \r\n  string public drawNumber;\r\n  /**\r\n   * @dev  \r\n   * @param index1 KOSPI \r\n   * @param index2 KOSDAQ \r\n   */\r\n  function setDrawNumber(string index1, string index2) public {\r\n      require(bytes(drawNumber).length == 0, \"\");\r\n      //  \r\n      drawNumber = calcLotData(index1, index2);\r\n  }\r\n\r\n  event LogDrawLot(string drawNumber, uint256 totalAmount, uint256 hitCount, uint256 forwardAmt);\r\n  \r\n  /**\r\n   * @dev  \r\n   *           \r\n   */\r\n   function settleAccount() public whenPaused {\r\n\r\n    //  \r\n    require(bytes(drawNumber).length != 0, \"\");\r\n\r\n    //  =   *  \r\n    uint256 totalAmount = totalCount.mul(UNIT_BASE);\r\n\r\n    //   \r\n    //  Wallet   \r\n    //    \r\n\r\n    //  =   \r\n    uint256 hitCount = lotTot[drawNumber];\r\n    if (hitCount > 0) {\r\n\r\n      //  = /\r\n      uint256 dividendUnit = totalCount.mul(UNIT_BASE).div(hitCount);\r\n\r\n      //  =  - (  * )\r\n      uint256 breakAmount = totalAmount.sub(totalCount.mul(dividendUnit));\r\n\r\n      //  \r\n      //mapping(address=>uint256) dividendMap;\r\n      uint256 len = lotKey[drawNumber].length;\r\n      address[] memory customers = new address[](len);\r\n      uint256[] memory divAmts   = new uint256[](len);\r\n      for ( uint256 k = 0 ; k < len ; k++ ) {\r\n\r\n        address toAddr = lotKey[drawNumber][k];\r\n        customers[k] = toAddr;\r\n\r\n        //   \r\n        uint256 calcAmt = lotMap[drawNumber][toAddr].mul(dividendUnit);\r\n\r\n        //   :    \r\n        if (k == 0) calcAmt = calcAmt.add(breakAmount);\r\n\r\n        //dividendMap[toAddr] = calcAmt;\r\n        divAmts[k] = calcAmt;\r\n\r\n      }\r\n\r\n      //        (PausableToken)\r\n      lotteryPayment.booking(customers, divAmts);\r\n      //require(lotteryPayment.booking(customers, divAmts));\r\n      require(transfer(lotteryPayment, totalAmount));\r\n\r\n    //     :   \r\n    } else {\r\n\r\n      forwardAmt = totalCount.mul(UNIT_BASE);\r\n\r\n    }\r\n\r\n    emit LogDrawLot(drawNumber, totalAmount, hitCount, forwardAmt);\r\n    \r\n    drawNumber = \"\";\r\n\r\n  }\r\n\r\n}\r\n\r\n\r\n\r\n\r\n/**\r\n * @title LotteryPayment\r\n * @dev   \r\n *       1 : 1  \r\n *\r\n */\r\ncontract LotteryPayment is BurnableToken, MintableToken, PausableToken {\r\n\r\n  using SafeMath for uint256;\r\n\r\n\r\n  /**\r\n    * @dev   \r\n    */\r\n  address lottery;\r\n\r\n  /**\r\n    * @dev  \r\n    */\r\n  mapping(address=>uint256) dividendMap;\r\n\r\n\r\n  /**\r\n\t * @dev  :   \r\n\t */\r\n  constructor() public {\r\n    lottery = msg.sender;\r\n  }\r\n\r\n\r\n  event LogBooking(string log, address[] customers, uint256[] divAmts);\r\n  function booking(address[] customers, uint256[] divAmts) external verifyLottery {\r\n\r\n    for(uint256 k = 0; k < customers.length; k++) {\r\n      address customer = customers[k];\r\n      uint256 divAmt   = divAmts[k];\r\n      dividendMap[customer] = dividendMap[customer].add(divAmt);\r\n    }\r\n\r\n    emit LogBooking(\"   \", customers, divAmts);\r\n\r\n  }\r\n\r\n  modifier verifyLottery() {\r\n    require(\r\n      lottery == msg.sender,\r\n      \"  .\"\r\n    );\r\n    _;\r\n  }\r\n\r\n  event LogRequestTransfer(string log, address customer, uint256 amt);\r\n  function requestTransfer() public verifyCustomer() {\r\n    address customer = msg.sender;\r\n    uint256 amt = dividendMap[customer];\r\n    //  \r\n    require(transfer(customer, amt));\r\n    //  \r\n    delete dividendMap[customer];\r\n    emit LogRequestTransfer(\"   .\", customer, amt);\r\n  }\r\n  modifier verifyCustomer() {\r\n    require(\r\n      dividendMap[msg.sender] == 0,\r\n      \"  .\"\r\n    );\r\n    _;\r\n  }\r\n\r\n  function getCustomerAmount(address customer) public view returns(uint256) {\r\n    return dividendMap[customer];\r\n  }\r\n\r\n}\r\n",
  "sourcePath": "D:\\02_PROJECT\\solidity-app-06\\contracts\\IndexLottery.sol",
  "compiler": {
    "name": "solc",
    "version": "0.4.24+commit.e67f0147.Emscripten.clang"
  },
  "schemaVersion": "2.0.0",
  "updatedAt": "2018-08-15T14:26:47.480Z"
}