{
  "contractName": "LotteryPayment",
  "abi": [
    {
      "constant": true,
      "inputs": [],
      "name": "mintingFinished",
      "outputs": [
        {
          "name": "",
          "type": "bool"
        }
      ],
      "payable": false,
      "stateMutability": "view",
      "type": "function"
    },
    {
      "constant": false,
      "inputs": [
        {
          "name": "_spender",
          "type": "address"
        },
        {
          "name": "_value",
          "type": "uint256"
        }
      ],
      "name": "approve",
      "outputs": [
        {
          "name": "",
          "type": "bool"
        }
      ],
      "payable": false,
      "stateMutability": "nonpayable",
      "type": "function"
    },
    {
      "constant": true,
      "inputs": [],
      "name": "totalSupply",
      "outputs": [
        {
          "name": "",
          "type": "uint256"
        }
      ],
      "payable": false,
      "stateMutability": "view",
      "type": "function"
    },
    {
      "constant": false,
      "inputs": [
        {
          "name": "_from",
          "type": "address"
        },
        {
          "name": "_to",
          "type": "address"
        },
        {
          "name": "_value",
          "type": "uint256"
        }
      ],
      "name": "transferFrom",
      "outputs": [
        {
          "name": "",
          "type": "bool"
        }
      ],
      "payable": false,
      "stateMutability": "nonpayable",
      "type": "function"
    },
    {
      "constant": false,
      "inputs": [],
      "name": "unpause",
      "outputs": [],
      "payable": false,
      "stateMutability": "nonpayable",
      "type": "function"
    },
    {
      "constant": false,
      "inputs": [
        {
          "name": "_to",
          "type": "address"
        },
        {
          "name": "_amount",
          "type": "uint256"
        }
      ],
      "name": "mint",
      "outputs": [
        {
          "name": "",
          "type": "bool"
        }
      ],
      "payable": false,
      "stateMutability": "nonpayable",
      "type": "function"
    },
    {
      "constant": false,
      "inputs": [
        {
          "name": "_value",
          "type": "uint256"
        }
      ],
      "name": "burn",
      "outputs": [],
      "payable": false,
      "stateMutability": "nonpayable",
      "type": "function"
    },
    {
      "constant": true,
      "inputs": [],
      "name": "paused",
      "outputs": [
        {
          "name": "",
          "type": "bool"
        }
      ],
      "payable": false,
      "stateMutability": "view",
      "type": "function"
    },
    {
      "constant": false,
      "inputs": [
        {
          "name": "_spender",
          "type": "address"
        },
        {
          "name": "_subtractedValue",
          "type": "uint256"
        }
      ],
      "name": "decreaseApproval",
      "outputs": [
        {
          "name": "success",
          "type": "bool"
        }
      ],
      "payable": false,
      "stateMutability": "nonpayable",
      "type": "function"
    },
    {
      "constant": true,
      "inputs": [
        {
          "name": "_owner",
          "type": "address"
        }
      ],
      "name": "balanceOf",
      "outputs": [
        {
          "name": "",
          "type": "uint256"
        }
      ],
      "payable": false,
      "stateMutability": "view",
      "type": "function"
    },
    {
      "constant": false,
      "inputs": [],
      "name": "renounceOwnership",
      "outputs": [],
      "payable": false,
      "stateMutability": "nonpayable",
      "type": "function"
    },
    {
      "constant": false,
      "inputs": [],
      "name": "finishMinting",
      "outputs": [
        {
          "name": "",
          "type": "bool"
        }
      ],
      "payable": false,
      "stateMutability": "nonpayable",
      "type": "function"
    },
    {
      "constant": false,
      "inputs": [],
      "name": "pause",
      "outputs": [],
      "payable": false,
      "stateMutability": "nonpayable",
      "type": "function"
    },
    {
      "constant": true,
      "inputs": [],
      "name": "owner",
      "outputs": [
        {
          "name": "",
          "type": "address"
        }
      ],
      "payable": false,
      "stateMutability": "view",
      "type": "function"
    },
    {
      "constant": false,
      "inputs": [
        {
          "name": "_to",
          "type": "address"
        },
        {
          "name": "_value",
          "type": "uint256"
        }
      ],
      "name": "transfer",
      "outputs": [
        {
          "name": "",
          "type": "bool"
        }
      ],
      "payable": false,
      "stateMutability": "nonpayable",
      "type": "function"
    },
    {
      "constant": false,
      "inputs": [
        {
          "name": "_spender",
          "type": "address"
        },
        {
          "name": "_addedValue",
          "type": "uint256"
        }
      ],
      "name": "increaseApproval",
      "outputs": [
        {
          "name": "success",
          "type": "bool"
        }
      ],
      "payable": false,
      "stateMutability": "nonpayable",
      "type": "function"
    },
    {
      "constant": true,
      "inputs": [
        {
          "name": "_owner",
          "type": "address"
        },
        {
          "name": "_spender",
          "type": "address"
        }
      ],
      "name": "allowance",
      "outputs": [
        {
          "name": "",
          "type": "uint256"
        }
      ],
      "payable": false,
      "stateMutability": "view",
      "type": "function"
    },
    {
      "constant": false,
      "inputs": [
        {
          "name": "_newOwner",
          "type": "address"
        }
      ],
      "name": "transferOwnership",
      "outputs": [],
      "payable": false,
      "stateMutability": "nonpayable",
      "type": "function"
    },
    {
      "inputs": [],
      "payable": false,
      "stateMutability": "nonpayable",
      "type": "constructor"
    },
    {
      "anonymous": false,
      "inputs": [
        {
          "indexed": false,
          "name": "log",
          "type": "string"
        },
        {
          "indexed": false,
          "name": "customers",
          "type": "address[]"
        },
        {
          "indexed": false,
          "name": "divAmts",
          "type": "uint256[]"
        }
      ],
      "name": "LogBooking",
      "type": "event"
    },
    {
      "anonymous": false,
      "inputs": [
        {
          "indexed": false,
          "name": "log",
          "type": "string"
        },
        {
          "indexed": false,
          "name": "customer",
          "type": "address"
        },
        {
          "indexed": false,
          "name": "amt",
          "type": "uint256"
        }
      ],
      "name": "LogRequestTransfer",
      "type": "event"
    },
    {
      "anonymous": false,
      "inputs": [],
      "name": "Pause",
      "type": "event"
    },
    {
      "anonymous": false,
      "inputs": [],
      "name": "Unpause",
      "type": "event"
    },
    {
      "anonymous": false,
      "inputs": [
        {
          "indexed": true,
          "name": "to",
          "type": "address"
        },
        {
          "indexed": false,
          "name": "amount",
          "type": "uint256"
        }
      ],
      "name": "Mint",
      "type": "event"
    },
    {
      "anonymous": false,
      "inputs": [],
      "name": "MintFinished",
      "type": "event"
    },
    {
      "anonymous": false,
      "inputs": [
        {
          "indexed": true,
          "name": "previousOwner",
          "type": "address"
        }
      ],
      "name": "OwnershipRenounced",
      "type": "event"
    },
    {
      "anonymous": false,
      "inputs": [
        {
          "indexed": true,
          "name": "previousOwner",
          "type": "address"
        },
        {
          "indexed": true,
          "name": "newOwner",
          "type": "address"
        }
      ],
      "name": "OwnershipTransferred",
      "type": "event"
    },
    {
      "anonymous": false,
      "inputs": [
        {
          "indexed": true,
          "name": "burner",
          "type": "address"
        },
        {
          "indexed": false,
          "name": "value",
          "type": "uint256"
        }
      ],
      "name": "Burn",
      "type": "event"
    },
    {
      "anonymous": false,
      "inputs": [
        {
          "indexed": true,
          "name": "owner",
          "type": "address"
        },
        {
          "indexed": true,
          "name": "spender",
          "type": "address"
        },
        {
          "indexed": false,
          "name": "value",
          "type": "uint256"
        }
      ],
      "name": "Approval",
      "type": "event"
    },
    {
      "anonymous": false,
      "inputs": [
        {
          "indexed": true,
          "name": "from",
          "type": "address"
        },
        {
          "indexed": true,
          "name": "to",
          "type": "address"
        },
        {
          "indexed": false,
          "name": "value",
          "type": "uint256"
        }
      ],
      "name": "Transfer",
      "type": "event"
    },
    {
      "constant": false,
      "inputs": [
        {
          "name": "customers",
          "type": "address[]"
        },
        {
          "name": "divAmts",
          "type": "uint256[]"
        }
      ],
      "name": "booking",
      "outputs": [],
      "payable": false,
      "stateMutability": "nonpayable",
      "type": "function"
    },
    {
      "constant": false,
      "inputs": [],
      "name": "requestTransfer",
      "outputs": [],
      "payable": false,
      "stateMutability": "nonpayable",
      "type": "function"
    },
    {
      "constant": true,
      "inputs": [
        {
          "name": "customer",
          "type": "address"
        }
      ],
      "name": "getCustomerAmount",
      "outputs": [
        {
          "name": "",
          "type": "uint256"
        }
      ],
      "payable": false,
      "stateMutability": "view",
      "type": "function"
    }
  ],
  "bytecode": "0x60806040526000600360146101000a81548160ff0219169083151502179055506000600360156101000a81548160ff02191690831515021790555034801561004657600080fd5b5033600360006101000a81548173ffffffffffffffffffffffffffffffffffffffff021916908373ffffffffffffffffffffffffffffffffffffffff16021790555033600460006101000a81548173ffffffffffffffffffffffffffffffffffffffff021916908373ffffffffffffffffffffffffffffffffffffffff1602179055506121de806100d86000396000f30060806040526004361061011d576000357c0100000000000000000000000000000000000000000000000000000000900463ffffffff16806305d2035b14610122578063095ea7b314610151578063136875a1146101b657806318160ddd146101cd57806323b872dd146101f857806336273cda1461027d5780633f4ba83a146102d457806340c10f19146102eb57806342966c68146103505780635c975abb1461037d57806366188463146103ac57806370a0823114610411578063715018a6146104685780637d64bcb41461047f5780638456cb59146104ae5780638da5cb5b146104c5578063a9059cbb1461051c578063d73dd62314610581578063dd62ed3e146105e6578063ecf397991461065d578063f2fde38b146106b0575b600080fd5b34801561012e57600080fd5b506101376106f3565b604051808215151515815260200191505060405180910390f35b34801561015d57600080fd5b5061019c600480360381019080803573ffffffffffffffffffffffffffffffffffffffff16906020019092919080359060200190929190505050610706565b604051808215151515815260200191505060405180910390f35b3480156101c257600080fd5b506101cb610736565b005b3480156101d957600080fd5b506101e2610935565b6040518082815260200191505060405180910390f35b34801561020457600080fd5b50610263600480360381019080803573ffffffffffffffffffffffffffffffffffffffff169060200190929190803573ffffffffffffffffffffffffffffffffffffffff1690602001909291908035906020019092919050505061093f565b604051808215151515815260200191505060405180910390f35b34801561028957600080fd5b506102be600480360381019080803573ffffffffffffffffffffffffffffffffffffffff169060200190929190505050610971565b6040518082815260200191505060405180910390f35b3480156102e057600080fd5b506102e96109ba565b005b3480156102f757600080fd5b50610336600480360381019080803573ffffffffffffffffffffffffffffffffffffffff16906020019092919080359060200190929190505050610a7a565b604051808215151515815260200191505060405180910390f35b34801561035c57600080fd5b5061037b60048036038101908080359060200190929190505050610c60565b005b34801561038957600080fd5b50610392610c6d565b604051808215151515815260200191505060405180910390f35b3480156103b857600080fd5b506103f7600480360381019080803573ffffffffffffffffffffffffffffffffffffffff16906020019092919080359060200190929190505050610c80565b604051808215151515815260200191505060405180910390f35b34801561041d57600080fd5b50610452600480360381019080803573ffffffffffffffffffffffffffffffffffffffff169060200190929190505050610cb0565b6040518082815260200191505060405180910390f35b34801561047457600080fd5b5061047d610cf8565b005b34801561048b57600080fd5b50610494610dfd565b604051808215151515815260200191505060405180910390f35b3480156104ba57600080fd5b506104c3610ec5565b005b3480156104d157600080fd5b506104da610f86565b604051808273ffffffffffffffffffffffffffffffffffffffff1673ffffffffffffffffffffffffffffffffffffffff16815260200191505060405180910390f35b34801561052857600080fd5b50610567600480360381019080803573ffffffffffffffffffffffffffffffffffffffff16906020019092919080359060200190929190505050610fac565b604051808215151515815260200191505060405180910390f35b34801561058d57600080fd5b506105cc600480360381019080803573ffffffffffffffffffffffffffffffffffffffff16906020019092919080359060200190929190505050610fdc565b604051808215151515815260200191505060405180910390f35b3480156105f257600080fd5b50610647600480360381019080803573ffffffffffffffffffffffffffffffffffffffff169060200190929190803573ffffffffffffffffffffffffffffffffffffffff16906020019092919050505061100c565b6040518082815260200191505060405180910390f35b34801561066957600080fd5b506106ae600480360381019080803590602001908201803590602001919091929391929390803590602001908201803590602001919091929391929390505050611093565b005b3480156106bc57600080fd5b506106f1600480360381019080803573ffffffffffffffffffffffffffffffffffffffff16906020019092919050505061130e565b005b600360149054906101000a900460ff1681565b6000600360159054906101000a900460ff1615151561072457600080fd5b61072e8383611376565b905092915050565b6000806000600560003373ffffffffffffffffffffffffffffffffffffffff1673ffffffffffffffffffffffffffffffffffffffff168152602001908152602001600020541415156107f0576040517f08c379a000000000000000000000000000000000000000000000000000000000815260040180806020018281038252601e8152602001807feca780eab88920eb8c80ec8381ec9db420ec9584eb8b99eb8b88eb8ba42e000081525060200191505060405180910390fd5b339150600560008373ffffffffffffffffffffffffffffffffffffffff1673ffffffffffffffffffffffffffffffffffffffff16815260200190815260200160002054905061083f8282610fac565b151561084a57600080fd5b600560008373ffffffffffffffffffffffffffffffffffffffff1673ffffffffffffffffffffffffffffffffffffffff168152602001908152602001600020600090557f97ce2f39571fdd07a87cf0164ca50a35a8d4d6a232480fd147ada0eab913d0a1828260405180806020018473ffffffffffffffffffffffffffffffffffffffff1673ffffffffffffffffffffffffffffffffffffffff1681526020018381526020018281038252601c8152602001807feca780eab88920ec9a94ecb2ad20ecb298eba6ac20ec9984eba38c2e00000000815250602001935050505060405180910390a15050565b6000600154905090565b6000600360159054906101000a900460ff1615151561095d57600080fd5b610968848484611468565b90509392505050565b6000600560008373ffffffffffffffffffffffffffffffffffffffff1673ffffffffffffffffffffffffffffffffffffffff168152602001908152602001600020549050919050565b600360009054906101000a900473ffffffffffffffffffffffffffffffffffffffff1673ffffffffffffffffffffffffffffffffffffffff163373ffffffffffffffffffffffffffffffffffffffff16141515610a1657600080fd5b600360159054906101000a900460ff161515610a3157600080fd5b6000600360156101000a81548160ff0219169083151502179055507f7805862f689e2f13df9f062ff482ad3ad112aca9e0847911ed832e158c525b3360405160405180910390a1565b6000600360009054906101000a900473ffffffffffffffffffffffffffffffffffffffff1673ffffffffffffffffffffffffffffffffffffffff163373ffffffffffffffffffffffffffffffffffffffff16141515610ad857600080fd5b600360149054906101000a900460ff16151515610af457600080fd5b610b098260015461182290919063ffffffff16565b600181905550610b60826000808673ffffffffffffffffffffffffffffffffffffffff1673ffffffffffffffffffffffffffffffffffffffff1681526020019081526020016000205461182290919063ffffffff16565b6000808573ffffffffffffffffffffffffffffffffffffffff1673ffffffffffffffffffffffffffffffffffffffff168152602001908152602001600020819055508273ffffffffffffffffffffffffffffffffffffffff167f0f6798a560793a54c3bcfe86a93cde1e73087d944c0ea20544137d4121396885836040518082815260200191505060405180910390a28273ffffffffffffffffffffffffffffffffffffffff16600073ffffffffffffffffffffffffffffffffffffffff167fddf252ad1be2c89b69c2b068fc378daa952ba7f163c4a11628f55a4df523b3ef846040518082815260200191505060405180910390a36001905092915050565b610c6a338261183e565b50565b600360159054906101000a900460ff1681565b6000600360159054906101000a900460ff16151515610c9e57600080fd5b610ca883836119f1565b905092915050565b60008060008373ffffffffffffffffffffffffffffffffffffffff1673ffffffffffffffffffffffffffffffffffffffff168152602001908152602001600020549050919050565b600360009054906101000a900473ffffffffffffffffffffffffffffffffffffffff1673ffffffffffffffffffffffffffffffffffffffff163373ffffffffffffffffffffffffffffffffffffffff16141515610d5457600080fd5b600360009054906101000a900473ffffffffffffffffffffffffffffffffffffffff1673ffffffffffffffffffffffffffffffffffffffff167ff8df31144d9c2f0f6b59d69b8b98abd5459d07f2742c4df920b25aae33c6482060405160405180910390a26000600360006101000a81548173ffffffffffffffffffffffffffffffffffffffff021916908373ffffffffffffffffffffffffffffffffffffffff160217905550565b6000600360009054906101000a900473ffffffffffffffffffffffffffffffffffffffff1673ffffffffffffffffffffffffffffffffffffffff163373ffffffffffffffffffffffffffffffffffffffff16141515610e5b57600080fd5b600360149054906101000a900460ff16151515610e7757600080fd5b6001600360146101000a81548160ff0219169083151502179055507fae5184fba832cb2b1f702aca6117b8d265eaf03ad33eb133f19dde0f5920fa0860405160405180910390a16001905090565b600360009054906101000a900473ffffffffffffffffffffffffffffffffffffffff1673ffffffffffffffffffffffffffffffffffffffff163373ffffffffffffffffffffffffffffffffffffffff16141515610f2157600080fd5b600360159054906101000a900460ff16151515610f3d57600080fd5b6001600360156101000a81548160ff0219169083151502179055507f6985a02210a168e66602d3235cb6db0e70f92b3ba4d376a33c0f3d9434bff62560405160405180910390a1565b600360009054906101000a900473ffffffffffffffffffffffffffffffffffffffff1681565b6000600360159054906101000a900460ff16151515610fca57600080fd5b610fd48383611c82565b905092915050565b6000600360159054906101000a900460ff16151515610ffa57600080fd5b6110048383611ea1565b905092915050565b6000600260008473ffffffffffffffffffffffffffffffffffffffff1673ffffffffffffffffffffffffffffffffffffffff16815260200190815260200160002060008373ffffffffffffffffffffffffffffffffffffffff1673ffffffffffffffffffffffffffffffffffffffff16815260200190815260200160002054905092915050565b60008060003373ffffffffffffffffffffffffffffffffffffffff16600460009054906101000a900473ffffffffffffffffffffffffffffffffffffffff1673ffffffffffffffffffffffffffffffffffffffff1614151561115d576040517f08c379a000000000000000000000000000000000000000000000000000000000815260040180806020018281038252601e8152602001807feca780eab88920eb8c80ec8381ec9db420ec9584eb8b99eb8b88eb8ba42e000081525060200191505060405180910390fd5b600092505b8686905083101561125357868684818110151561117b57fe5b9050602002013573ffffffffffffffffffffffffffffffffffffffff16915084848481811015156111a857fe5b90506020020135905061120381600560008573ffffffffffffffffffffffffffffffffffffffff1673ffffffffffffffffffffffffffffffffffffffff1681526020019081526020016000205461182290919063ffffffff16565b600560008473ffffffffffffffffffffffffffffffffffffffff1673ffffffffffffffffffffffffffffffffffffffff168152602001908152602001600020819055508280600101935050611162565b7f6971c9b61284afefc1ce5786bd3c46bd2c41b1a61fa28f9be3c56baacffe17df87878787604051808060200180602001806020018481038452601b8152602001807feca780eab88920ec9ea5ebb68020eab8b0eba19d20ec9984eba38c0000000000815250602001848103835288888281815260200192506020028082843782019150508481038252868682818152602001925060200280828437820191505097505050505050505060405180910390a150505050505050565b600360009054906101000a900473ffffffffffffffffffffffffffffffffffffffff1673ffffffffffffffffffffffffffffffffffffffff163373ffffffffffffffffffffffffffffffffffffffff1614151561136a57600080fd5b6113738161209d565b50565b600081600260003373ffffffffffffffffffffffffffffffffffffffff1673ffffffffffffffffffffffffffffffffffffffff16815260200190815260200160002060008573ffffffffffffffffffffffffffffffffffffffff1673ffffffffffffffffffffffffffffffffffffffff168152602001908152602001600020819055508273ffffffffffffffffffffffffffffffffffffffff163373ffffffffffffffffffffffffffffffffffffffff167f8c5be1e5ebec7d5bd14f71427d1e84f3dd0314c0f7b2291e5b200ac8c7c3b925846040518082815260200191505060405180910390a36001905092915050565b60008073ffffffffffffffffffffffffffffffffffffffff168373ffffffffffffffffffffffffffffffffffffffff16141515156114a557600080fd5b6000808573ffffffffffffffffffffffffffffffffffffffff1673ffffffffffffffffffffffffffffffffffffffff1681526020019081526020016000205482111515156114f257600080fd5b600260008573ffffffffffffffffffffffffffffffffffffffff1673ffffffffffffffffffffffffffffffffffffffff16815260200190815260200160002060003373ffffffffffffffffffffffffffffffffffffffff1673ffffffffffffffffffffffffffffffffffffffff16815260200190815260200160002054821115151561157d57600080fd5b6115ce826000808773ffffffffffffffffffffffffffffffffffffffff1673ffffffffffffffffffffffffffffffffffffffff1681526020019081526020016000205461219990919063ffffffff16565b6000808673ffffffffffffffffffffffffffffffffffffffff1673ffffffffffffffffffffffffffffffffffffffff16815260200190815260200160002081905550611661826000808673ffffffffffffffffffffffffffffffffffffffff1673ffffffffffffffffffffffffffffffffffffffff1681526020019081526020016000205461182290919063ffffffff16565b6000808573ffffffffffffffffffffffffffffffffffffffff1673ffffffffffffffffffffffffffffffffffffffff1681526020019081526020016000208190555061173282600260008773ffffffffffffffffffffffffffffffffffffffff1673ffffffffffffffffffffffffffffffffffffffff16815260200190815260200160002060003373ffffffffffffffffffffffffffffffffffffffff1673ffffffffffffffffffffffffffffffffffffffff1681526020019081526020016000205461219990919063ffffffff16565b600260008673ffffffffffffffffffffffffffffffffffffffff1673ffffffffffffffffffffffffffffffffffffffff16815260200190815260200160002060003373ffffffffffffffffffffffffffffffffffffffff1673ffffffffffffffffffffffffffffffffffffffff168152602001908152602001600020819055508273ffffffffffffffffffffffffffffffffffffffff168473ffffffffffffffffffffffffffffffffffffffff167fddf252ad1be2c89b69c2b068fc378daa952ba7f163c4a11628f55a4df523b3ef846040518082815260200191505060405180910390a3600190509392505050565b6000818301905082811015151561183557fe5b80905092915050565b6000808373ffffffffffffffffffffffffffffffffffffffff1673ffffffffffffffffffffffffffffffffffffffff16815260200190815260200160002054811115151561188b57600080fd5b6118dc816000808573ffffffffffffffffffffffffffffffffffffffff1673ffffffffffffffffffffffffffffffffffffffff1681526020019081526020016000205461219990919063ffffffff16565b6000808473ffffffffffffffffffffffffffffffffffffffff1673ffffffffffffffffffffffffffffffffffffffff168152602001908152602001600020819055506119338160015461219990919063ffffffff16565b6001819055508173ffffffffffffffffffffffffffffffffffffffff167fcc16f5dbb4873280815c1ee09dbd06736cffcc184412cf7a71a0fdb75d397ca5826040518082815260200191505060405180910390a2600073ffffffffffffffffffffffffffffffffffffffff168273ffffffffffffffffffffffffffffffffffffffff167fddf252ad1be2c89b69c2b068fc378daa952ba7f163c4a11628f55a4df523b3ef836040518082815260200191505060405180910390a35050565b600080600260003373ffffffffffffffffffffffffffffffffffffffff1673ffffffffffffffffffffffffffffffffffffffff16815260200190815260200160002060008573ffffffffffffffffffffffffffffffffffffffff1673ffffffffffffffffffffffffffffffffffffffff16815260200190815260200160002054905080831115611b02576000600260003373ffffffffffffffffffffffffffffffffffffffff1673ffffffffffffffffffffffffffffffffffffffff16815260200190815260200160002060008673ffffffffffffffffffffffffffffffffffffffff1673ffffffffffffffffffffffffffffffffffffffff16815260200190815260200160002081905550611b96565b611b15838261219990919063ffffffff16565b600260003373ffffffffffffffffffffffffffffffffffffffff1673ffffffffffffffffffffffffffffffffffffffff16815260200190815260200160002060008673ffffffffffffffffffffffffffffffffffffffff1673ffffffffffffffffffffffffffffffffffffffff168152602001908152602001600020819055505b8373ffffffffffffffffffffffffffffffffffffffff163373ffffffffffffffffffffffffffffffffffffffff167f8c5be1e5ebec7d5bd14f71427d1e84f3dd0314c0f7b2291e5b200ac8c7c3b925600260003373ffffffffffffffffffffffffffffffffffffffff1673ffffffffffffffffffffffffffffffffffffffff16815260200190815260200160002060008873ffffffffffffffffffffffffffffffffffffffff1673ffffffffffffffffffffffffffffffffffffffff168152602001908152602001600020546040518082815260200191505060405180910390a3600191505092915050565b60008073ffffffffffffffffffffffffffffffffffffffff168373ffffffffffffffffffffffffffffffffffffffff1614151515611cbf57600080fd5b6000803373ffffffffffffffffffffffffffffffffffffffff1673ffffffffffffffffffffffffffffffffffffffff168152602001908152602001600020548211151515611d0c57600080fd5b611d5d826000803373ffffffffffffffffffffffffffffffffffffffff1673ffffffffffffffffffffffffffffffffffffffff1681526020019081526020016000205461219990919063ffffffff16565b6000803373ffffffffffffffffffffffffffffffffffffffff1673ffffffffffffffffffffffffffffffffffffffff16815260200190815260200160002081905550611df0826000808673ffffffffffffffffffffffffffffffffffffffff1673ffffffffffffffffffffffffffffffffffffffff1681526020019081526020016000205461182290919063ffffffff16565b6000808573ffffffffffffffffffffffffffffffffffffffff1673ffffffffffffffffffffffffffffffffffffffff168152602001908152602001600020819055508273ffffffffffffffffffffffffffffffffffffffff163373ffffffffffffffffffffffffffffffffffffffff167fddf252ad1be2c89b69c2b068fc378daa952ba7f163c4a11628f55a4df523b3ef846040518082815260200191505060405180910390a36001905092915050565b6000611f3282600260003373ffffffffffffffffffffffffffffffffffffffff1673ffffffffffffffffffffffffffffffffffffffff16815260200190815260200160002060008673ffffffffffffffffffffffffffffffffffffffff1673ffffffffffffffffffffffffffffffffffffffff1681526020019081526020016000205461182290919063ffffffff16565b600260003373ffffffffffffffffffffffffffffffffffffffff1673ffffffffffffffffffffffffffffffffffffffff16815260200190815260200160002060008573ffffffffffffffffffffffffffffffffffffffff1673ffffffffffffffffffffffffffffffffffffffff168152602001908152602001600020819055508273ffffffffffffffffffffffffffffffffffffffff163373ffffffffffffffffffffffffffffffffffffffff167f8c5be1e5ebec7d5bd14f71427d1e84f3dd0314c0f7b2291e5b200ac8c7c3b925600260003373ffffffffffffffffffffffffffffffffffffffff1673ffffffffffffffffffffffffffffffffffffffff16815260200190815260200160002060008773ffffffffffffffffffffffffffffffffffffffff1673ffffffffffffffffffffffffffffffffffffffff168152602001908152602001600020546040518082815260200191505060405180910390a36001905092915050565b600073ffffffffffffffffffffffffffffffffffffffff168173ffffffffffffffffffffffffffffffffffffffff16141515156120d957600080fd5b8073ffffffffffffffffffffffffffffffffffffffff16600360009054906101000a900473ffffffffffffffffffffffffffffffffffffffff1673ffffffffffffffffffffffffffffffffffffffff167f8be0079c531659141344cd1fd0a4f28419497f9722a3daafe3b4186f6b6457e060405160405180910390a380600360006101000a81548173ffffffffffffffffffffffffffffffffffffffff021916908373ffffffffffffffffffffffffffffffffffffffff16021790555050565b60008282111515156121a757fe5b8183039050929150505600a165627a7a723058207ae0813454dec9eab1ce5623f174dc6401be153aee83da51a7696d68e604e9cd0029",
  "source": "pragma solidity ^0.4.24;\r\n\r\nimport \"openzeppelin-solidity/contracts/token/ERC20/BurnableToken.sol\";\r\nimport \"openzeppelin-solidity/contracts/token/ERC20/MintableToken.sol\";\r\nimport \"openzeppelin-solidity/contracts/token/ERC20/PausableToken.sol\";\r\nimport \"openzeppelin-solidity/contracts/lifecycle/Destructible.sol\";\r\n\r\n/**\r\n * @title IndexLottery\r\n * @dev ERC20  , Burnable, Pausable, Destructible   \r\n *\r\n */\r\ncontract IndexLottery is BurnableToken, PausableToken, Destructible {\r\n\r\n  using SafeMath for uint256;\r\n\r\n  /**\r\n\t * @dev  \r\n\t */\r\n  LotteryPayment public lotteryPayment;\r\n\r\n  /**\r\n\t * @dev  :   \r\n\t */\r\n  constructor() public {\r\n\r\n    //    :         \r\n    lotteryPayment = new LotteryPayment();\r\n\r\n  }\r\n\r\n  function getBalance() public view returns(uint256) {\r\n      return  address(this).balance;\r\n  }\r\n  function getThisAddress() public view returns(address) {\r\n      return  address(this);\r\n  }\r\n\r\n\r\n/*\r\n===============================================================================================\r\n   \r\n===============================================================================================\r\n*/\r\n\r\n  //  \r\n  uint256 private totalCount;\r\n\r\n  //   :  => (  => )\r\n  mapping(string=>mapping(address=>uint256)) private lotMap;\r\n  mapping(string=>address[])                 private lotKey; //  \r\n//  mapping(string=>mapping(uint256=>address)) public lotKey;\r\n  mapping(string=>uint256)                   private lotTot; //  \r\n\r\n  //   :   => ( => )\r\n  mapping(address=>mapping(string=>uint256)) private custMap;\r\n  mapping(address=>string[])                 private custKey; //  \r\n\r\n  /**\r\n    * @dev    \r\n    * @param lotData  \r\n    * @param customer   \r\n    * @param lotCnt   \r\n    */\r\n  function regist(string lotData, address customer, uint256 lotCnt) public whenNotPaused {\r\n\r\n      // 1.   \r\n\r\n      // 1.1   \r\n      /*\r\n      if (lotMap[lotData][customer] == 0) {\r\n        //lotKey[lotData].push(customer);\r\n        uint256 idx = lotKey[lotData].length - 1;\r\n        idx = idx < 0 ? 0 : idx;\r\n        lotKey[lotData][idx] = customer;\r\n      }\r\n      */\r\n      // 1.2   \r\n      lotMap[lotData][customer].add(lotCnt);\r\n\r\n      // 1.3    \r\n      lotTot[lotData].add(lotCnt);\r\n\r\n      // 2.   \r\n      totalCount.add(lotCnt);\r\n\r\n      // 3.   \r\n      // 3.1   \r\n      if (custMap[customer][lotData] == 0) {\r\n        custKey[customer].push(lotData);\r\n      }\r\n      // 3.2   \r\n      custMap[customer][lotData].add(lotCnt);\r\n\r\n    }\r\n\r\n    /**\r\n      * @dev      .\r\n      * @param lotData  \r\n      * @return  \r\n      */\r\n  //  function getCustomers(string lotData) public view returns(address[]) {\r\n  //    return lotKey[lotData];\r\n  //  }\r\n\r\n    /**\r\n      * @dev     .\r\n      * @param customer   \r\n      * @return  \r\n      */\r\n  //  function getLotNumbers(address customer, uint256 idx) public view returns(string) {\r\n  //    return custKey[customer][idx];\r\n  //  }\r\n\r\n/*\r\n===============================================================================================\r\n \r\n===============================================================================================\r\n*/\r\n\r\n  //   () : 0.02\tEther .    .\r\n  uint256 constant public UNIT_PRICE = 20000000000000000;\r\n  //  \r\n  // TOOD GasPrice       => web3.estimateGas (UI)\r\n  uint256 constant public UNIT_FEE  =  2000000000000000;\r\n  //  \r\n  uint256 constant public UNIT_BASE = 18000000000000000;\r\n  event LogFallback(address who, uint256 amt);\r\n  /*\r\n   * @dev Fallback \r\n   */\r\n  function() external payable isValidPay() {\r\n\r\n    buyLottery(msg.value, string(msg.data), msg.sender);\r\n        \r\n    emit LogFallback(msg.sender, msg.value);\r\n\r\n  }\r\n\r\n  event LogBuyLottery(address customer, uint256 amt, string lotData, uint256 lotCnt);\r\n  event LogStr(string log);\r\n\r\n  /*\r\n   * @dev  \r\n   */\r\n  function buyLottery(uint256 amt, string lotData, address customer) private whenNotPaused {\r\n\r\n    //    \r\n    uint256 lotCnt = amt.div(UNIT_PRICE);\r\n\r\n    //   \r\n    regist(lotData, customer, lotCnt);\r\n\r\n    emit LogBuyLottery(customer, amt, lotData, lotCnt);\r\n\r\n  }\r\n\r\n  /**\r\n   * @dev   ,  \r\n   */\r\n  modifier isValidPay() {\r\n\r\n    //  \r\n    if (msg.sender == owner) {\r\n        //    \r\n        require(msg.value >= UNIT_FEE, \"   \");\r\n    //  \r\n    } else {\r\n        require(msg.data.length == 4, \"   .\");\r\n    }\r\n      \r\n    require(msg.value != 0, \" .\");\r\n    \r\n    require(msg.value % UNIT_PRICE == 0, \"  .\");\r\n    \r\n  \t_;\r\n  }\r\n\r\n/*\r\n===============================================================================================\r\n  \r\n===============================================================================================\r\n*/\r\n\r\n  //  \r\n  uint256 public forwardAmt;\r\n\r\n  /**\r\n   * @dev   \r\n   * @param index1 KOSPI \r\n   * @param index2 KOSDAQ \r\n   * @return \r\n   */\r\n  function calcLotData(string index1, string index2) public pure returns(string) {\r\n    bytes memory strBytes1 = bytes(index1);\r\n    bytes memory strBytes2 = bytes(index2);\r\n    bytes memory result = new bytes(4);\r\n    result[0] = strBytes1[strBytes1.length - 2];\r\n    result[1] = strBytes1[strBytes1.length - 1];\r\n    result[2] = strBytes2[strBytes2.length - 2];\r\n    result[3] = strBytes2[strBytes2.length - 1];\r\n    return string(result);\r\n  }\r\n  \r\n  string public drawNumber;\r\n  /**\r\n   * @dev  \r\n   * @param index1 KOSPI \r\n   * @param index2 KOSDAQ \r\n   */\r\n  function setDrawNumber(string index1, string index2) public {\r\n      require(bytes(drawNumber).length == 0, \"\");\r\n      //  \r\n      drawNumber = calcLotData(index1, index2);\r\n  }\r\n\r\n  event LogDrawLot(string drawNumber, uint256 totalAmount, uint256 hitCount, uint256 forwardAmt);\r\n  \r\n  /**\r\n   * @dev  \r\n   *           \r\n   */\r\n   function settleAccount() public whenPaused {\r\n\r\n    //  \r\n    require(bytes(drawNumber).length != 0, \"\");\r\n\r\n    //  =   *  \r\n    uint256 totalAmount = totalCount.mul(UNIT_BASE);\r\n\r\n    //   \r\n    //  Wallet   \r\n    //    \r\n\r\n    //  =   \r\n    uint256 hitCount = lotTot[drawNumber];\r\n    if (hitCount > 0) {\r\n\r\n      //  = /\r\n      uint256 dividendUnit = totalCount.mul(UNIT_BASE).div(hitCount);\r\n\r\n      //  =  - (  * )\r\n      uint256 breakAmount = totalAmount.sub(totalCount.mul(dividendUnit));\r\n\r\n      //  \r\n      //mapping(address=>uint256) dividendMap;\r\n      uint256 len = lotKey[drawNumber].length;\r\n      address[] memory customers = new address[](len);\r\n      uint256[] memory divAmts   = new uint256[](len);\r\n      for ( uint256 k = 0 ; k < len ; k++ ) {\r\n\r\n        address toAddr = lotKey[drawNumber][k];\r\n        customers[k] = toAddr;\r\n\r\n        //   \r\n        uint256 calcAmt = lotMap[drawNumber][toAddr].mul(dividendUnit);\r\n\r\n        //   :    \r\n        if (k == 0) calcAmt = calcAmt.add(breakAmount);\r\n\r\n        //dividendMap[toAddr] = calcAmt;\r\n        divAmts[k] = calcAmt;\r\n\r\n      }\r\n\r\n      //        (PausableToken)\r\n      lotteryPayment.booking(customers, divAmts);\r\n      //require(lotteryPayment.booking(customers, divAmts));\r\n      require(transfer(lotteryPayment, totalAmount));\r\n\r\n    //     :   \r\n    } else {\r\n\r\n      forwardAmt = totalCount.mul(UNIT_BASE);\r\n\r\n    }\r\n\r\n    emit LogDrawLot(drawNumber, totalAmount, hitCount, forwardAmt);\r\n    \r\n    drawNumber = \"\";\r\n\r\n  }\r\n\r\n}\r\n\r\n\r\n\r\n\r\n/**\r\n * @title LotteryPayment\r\n * @dev   \r\n *       1 : 1  \r\n *\r\n */\r\ncontract LotteryPayment is BurnableToken, MintableToken, PausableToken {\r\n\r\n  using SafeMath for uint256;\r\n\r\n\r\n  /**\r\n    * @dev   \r\n    */\r\n  address lottery;\r\n\r\n  /**\r\n    * @dev  \r\n    */\r\n  mapping(address=>uint256) dividendMap;\r\n\r\n\r\n  /**\r\n\t * @dev  :   \r\n\t */\r\n  constructor() public {\r\n    lottery = msg.sender;\r\n  }\r\n\r\n\r\n  event LogBooking(string log, address[] customers, uint256[] divAmts);\r\n  function booking(address[] customers, uint256[] divAmts) external verifyLottery {\r\n\r\n    for(uint256 k = 0; k < customers.length; k++) {\r\n      address customer = customers[k];\r\n      uint256 divAmt   = divAmts[k];\r\n      dividendMap[customer] = dividendMap[customer].add(divAmt);\r\n    }\r\n\r\n    emit LogBooking(\"   \", customers, divAmts);\r\n\r\n  }\r\n\r\n  modifier verifyLottery() {\r\n    require(\r\n      lottery == msg.sender,\r\n      \"  .\"\r\n    );\r\n    _;\r\n  }\r\n\r\n  event LogRequestTransfer(string log, address customer, uint256 amt);\r\n  function requestTransfer() public verifyCustomer() {\r\n    address customer = msg.sender;\r\n    uint256 amt = dividendMap[customer];\r\n    //  \r\n    require(transfer(customer, amt));\r\n    //  \r\n    delete dividendMap[customer];\r\n    emit LogRequestTransfer(\"   .\", customer, amt);\r\n  }\r\n  modifier verifyCustomer() {\r\n    require(\r\n      dividendMap[msg.sender] == 0,\r\n      \"  .\"\r\n    );\r\n    _;\r\n  }\r\n\r\n  function getCustomerAmount(address customer) public view returns(uint256) {\r\n    return dividendMap[customer];\r\n  }\r\n\r\n}\r\n",
  "sourcePath": "D:\\02_PROJECT\\solidity-app-06\\contracts\\IndexLottery.sol",
  "compiler": {
    "name": "solc",
    "version": "0.4.24+commit.e67f0147.Emscripten.clang"
  },
  "schemaVersion": "2.0.0",
  "updatedAt": "2018-08-10T16:00:44.327Z"
}