{
  "contractName": "WalletManager",
  "abi": [
    {
      "inputs": [],
      "payable": false,
      "stateMutability": "nonpayable",
      "type": "constructor"
    },
    {
      "anonymous": false,
      "inputs": [
        {
          "indexed": false,
          "name": "log",
          "type": "string"
        }
      ],
      "name": "Log",
      "type": "event"
    },
    {
      "anonymous": false,
      "inputs": [
        {
          "indexed": false,
          "name": "who",
          "type": "address"
        },
        {
          "indexed": false,
          "name": "amt",
          "type": "uint256"
        }
      ],
      "name": "LogFallback",
      "type": "event"
    },
    {
      "constant": false,
      "inputs": [],
      "name": "deposit",
      "outputs": [
        {
          "name": "sufficient",
          "type": "bool"
        }
      ],
      "payable": true,
      "stateMutability": "payable",
      "type": "function"
    },
    {
      "constant": true,
      "inputs": [
        {
          "name": "addr",
          "type": "address"
        }
      ],
      "name": "getBalanceInEth",
      "outputs": [
        {
          "name": "",
          "type": "uint256"
        }
      ],
      "payable": false,
      "stateMutability": "view",
      "type": "function"
    },
    {
      "constant": true,
      "inputs": [
        {
          "name": "addr",
          "type": "address"
        }
      ],
      "name": "getBalance",
      "outputs": [
        {
          "name": "",
          "type": "uint256"
        }
      ],
      "payable": false,
      "stateMutability": "view",
      "type": "function"
    }
  ],
  "bytecode": "0x608060405234801561001057600080fd5b507fcf34ef537ac33ee1ac626ca1587a0a7e8e51561e5514f8cb36afa1c5102b3bab60405180806020018281038252601b8152602001807f57616c6c65744d616e6167657220636f6e7374727563746f722121000000000081525060200191505060405180910390a1610367806100886000396000f300608060405260043610610057576000357c0100000000000000000000000000000000000000000000000000000000900463ffffffff1680637bd703e81461005c578063d0e30db0146100b3578063f8b2cb4f146100d5575b600080fd5b34801561006857600080fd5b5061009d600480360381019080803573ffffffffffffffffffffffffffffffffffffffff16906020019092919050505061012c565b6040518082815260200191505060405180910390f35b6100bb6101ec565b604051808215151515815260200191505060405180910390f35b3480156100e157600080fd5b50610116600480360381019080803573ffffffffffffffffffffffffffffffffffffffff1690602001909291905050506102f3565b6040518082815260200191505060405180910390f35b600073__ConvertLib____________________________6396e4ee3d610151846102f3565b60026040518363ffffffff167c0100000000000000000000000000000000000000000000000000000000028152600401808381526020018281526020019250505060206040518083038186803b1580156101aa57600080fd5b505af41580156101be573d6000803e3d6000fd5b505050506040513d60208110156101d457600080fd5b81019080805190602001909291905050509050919050565b6000806000349150339050600073ffffffffffffffffffffffffffffffffffffffff168173ffffffffffffffffffffffffffffffffffffffff161415151561023357600080fd5b816000808373ffffffffffffffffffffffffffffffffffffffff1673ffffffffffffffffffffffffffffffffffffffff168152602001908152602001600020600082825401925050819055507fc04e16d4878a87a7d627a5fb8c387ac4a2169e45f86d1935cc739c196c8a57158183604051808373ffffffffffffffffffffffffffffffffffffffff1673ffffffffffffffffffffffffffffffffffffffff1681526020018281526020019250505060405180910390a160019250505090565b60008060008373ffffffffffffffffffffffffffffffffffffffff1673ffffffffffffffffffffffffffffffffffffffff1681526020019081526020016000205490509190505600a165627a7a723058202c718dcb6bc3ef42d20631c66655af2fd6818035a3a95a3ba077d2ece1054ca30029",
  "source": "pragma solidity ^0.4.24;\n\nimport \"./ConvertLib.sol\";\n\ncontract WalletManager {\n\n\tmapping (address => uint256) balances;\n\t\n\tevent Log(string log);\n\tconstructor() public {\n\t\temit Log(\"WalletManager constructor!!\");\n\t}\n\t\n\tevent LogFallback(address who, uint256 amt);\n\n\tfunction deposit() public payable returns(bool sufficient) {\n\n\t\tuint256 value     = msg.value;\n\t\taddress sender   = msg.sender;\n\t\t\n\t\trequire(sender != address(0));\n\t\t\n\t\t// 잔고 조회\n\t\t//require(value <= balances[sender]);\n\t\t\n\t\t// 기장\n\t\tbalances[sender] += value;\n\t\t\n\t\temit LogFallback(sender, value);\n\t\t\n\t\treturn true;\n\t\n\t}\n\n\tfunction getBalanceInEth(address addr) public view returns(uint) {\n\t\treturn ConvertLib.convert(getBalance(addr), 2);\n\t}\n\n\tfunction getBalance(address addr) public view returns(uint) {\n\t\treturn balances[addr];\n\t}\n\t\n//\tfunction deposit() public payable {\n//\n//\t\tuint256 value     = msg.value;\n//\t\taddress sender   = msg.sender;\n//\t\taddress receiver = owner;\n//\t\t\n//\t\trequire(sender != address(0));\n//\t\t\n//\t\t// 잔고 조회\n//\t\trequire(value <= balances[sender]);\n//\t\t\n//\t\t// 기장\n//\t\tbalances[sender]   = balances[sender].sub(value);\n//\t\tbalances[receiver] = balances[receiver].add(value);\n//\t\t\n//\t\temit LogFallback(sender, value);\n//\t\n//\t}\n\t\n}\n",
  "sourcePath": "D:\\02_PROJECT\\solidity-app-06\\contracts\\WalletManager.sol",
  "compiler": {
    "name": "solc",
    "version": "0.4.24+commit.e67f0147.Emscripten.clang"
  },
  "schemaVersion": "2.0.0",
  "updatedAt": "2018-08-15T14:26:47.464Z"
}